:100000000C942C030C9449030C9449030C9449035D
:100010000C9449030C9449030C9449030C94490330
:100020000C9449030C9449030C944A180C948617B9
:100030000C9410250C9449030C9449030C94490327
:100040000C9449030C9449030C9449030C94490300
:100050000C9449030C94B4240C9449030C94490364
:100060000C9449030C9449030C9449030C944903E0
:100070000C9449030C9449030C9449030C944903D0
:100080000C9449030C9449030C9449030C944903C0
:100090000C9449030C9449030C9449030C944903B0
:1000A0000C9449030C9449030C9449036E086E08A0
:1000B000AC08AC08F508000BA70A000B1509010AEB
:1000C000130A130AC70CCA0CCD0CD00CD30CD60CD7
:1000D000D90C8E1293129D12911296129B129912A4
:1000E0009715BE155E17BE155E17061629165E1704
:1000F00027173A173C1D3C1D4F1D4F1D451D4F1D19
:100100004F1D4F1D3C1D3C1D4A1D4F1D4F1D4A1DBF
:100110000100010001000062010000001E00140047
:1001200004001D610100E3001F00070016001B0012
:1001300001002A00200015000B00100001002C0017
:1001400021001A0017000600290001002200050006
:100150000A0019000000010001002F000000260223
:100160000000010001003000000027020000010033
:1001700023000D001C000E000000010024000900F7
:1001800011000F0002510100250018000800360080
:1001900001002800260013001200370001002B0088
:1001A000270033000C003861010000743500310075
:1001B0003468E1000153000001000100010001006A
:1001C000010000003A0001000100010001000100EF
:1001D0003B00010001000100010001003C000100A2
:1001E00001000100010001003D00010001000100CB
:1001F000010001003E0001000100010000000100BB
:1002000001000100000001000000010001000100E8
:1002100000000100000001003F00520051000100F9
:10022000000001004000240021001E000100010028
:100230004100250022001F00370001004200260077
:100240002300200027000100430025022E02310078
:100250002E000100440045000100010001000000E3
:100260000100010001000100010000000100010087
:100270000100010001000100010001000100010076
:100280000100010001000100010001000100010066
:100290000100010001000100010001000100010056
:1002A0000100010000000100010001000000010048
:1002B0000000010001000100000001000000010039
:1002C00001004B004E0001000000010001004A0047
:1002D00050002D000100010001004D0052002E00D1
:1002E0000100010001004C0051000100010001006B
:1002F000010001004F0001000100010001000100A8
:1003000001000100010000000000000000000000EA
:1003100000000101010101010101010202020202CA
:100320000202020303030303030304040404040599
:100330000505050506060606060707070708080857
:10034000080909090A0A0A0B0B0B0C0C0C0D0D0D00
:100350000E0E0E0F0F101010111112121313141491
:10036000151516161717181819191A1A1B1C1C1D03
:100370001D1E1F1F20212122232324252526272857
:1003800028292A2B2C2C2D2E2F3031313233343585
:10039000363738393A3B3C3D3E3F40414243444585
:1003A000464748494B4C4D4E4F5052535455575861
:1003B000595A5C5D5E606163646567686A6B6C6E08
:1003C0006F7172747677797A7C7D7F81828486877B
:1003D000898B8D8E9092949597999B9D9FA1A2A4B5
:1003E000A6A8AAACAEB0B2B4B6B9BBBDBFC1C3C5B6
:1003F000C8CACCCED0D3D5D7DADCDEE1E3E6E8EA72
:10040000EDEFF2F4F7F9FCFFFFAA7F554005010973
:1004100080A10185031A81002A83001601002603AA
:1004200000950175108100C0050C0901A10185042A
:100430001A01002A9C02160100269C0295017510E3
:100440008100C005010906A1018505050719E029FC
:10045000E715002501950875018102050719002996
:10046000EF1500250195F075018102050819012994
:1004700005950575019102950175039101C005016E
:100480000906A101050719E029E7150025019508CE
:10049000750181029501750881010507190029FF81
:1004A000150026FF00950675088100050819012929
:1004B00005950575019102950175039101C0090229
:1004C0003B00020100A0FA09040000010301010041
:1004D0000921110100012240000705810308000ADB
:1004E000090401000103000000092111010001229B
:1004F00071000705820320000A12011001000000AC
:1005000008EDFE071301000102030104033000009F
:100510000016034500720067006F0044006F00780A
:1005200000200045005A00000016034500720067D5
:10053000006F0044006F007800200045005A000062
:10054000000403090400047F3F1F64321464321462
:10055000783C1E1E140A052223252628292A2C2D24
:100560002F3032333536383A3B3D3E4042434547E3
:10057000494A4C4E5051535557595A5C5E6062641B
:100580006668696B6D6F71737577797B7D7F818329
:100590008587898A8C8E90929496989A9C9E9FA12A
:1005A000A3A5A7A8AAACAEAFB1B3B4B6B8B9BBBC4B
:1005B000BEBFC1C2C3C5C6C7C9CACBCCCDCED0D1C0
:1005C000D2D2D3D4D5D6D7D7D8D9D9DADADBDBDBB8
:1005D000DCDCDCDCDCDDDDDDDDDCDCDCDCDCDBDB59
:1005E000DBDADAD9D9D8D7D7D6D5D4D3D2D2D1D0AD
:1005F000CECDCCCBCAC9C7C6C5C3C2C1BFBEBCBBAA
:10060000B9B8B6B4B3B1AFAEACAAA8A7A5A3A19F21
:100610009E9C9A98969492908E8C8A8987858381E5
:100620007F7D7B79777573716F6D6B6968666462C6
:10063000605E5C5A5957555351504E4C4A49474594
:100640004342403E3D3B3A3836353332302F2D2C35
:100650002A2928262523220011241FBECFEFDAE005
:10066000DEBFCDBF11E0A0E0B1E0E6ECF4E502C0F2
:1006700005900D92AE3EB107D9F723E0AEEEB1E0A2
:1006800001C01D92A936B207E1F70E94931A0C949B
:10069000612A0C9400008F929F92AF92BF92CF92EA
:1006A000DF92EF92FF920F931F93CF93DF93CDB71B
:1006B000DEB728970FB6F894DEBF0FBECDBFFC01A2
:1006C000F080118183819481892B11F40C94140C96
:1006D0001F3F29F40FEFF01611F40C94140C6F0166
:1006E00085E0DE01119601900D928A95E1F7F60101
:1006F000228189819A81222349F00E947826082F3D
:10070000682F89819A810E94F12603C00E94C42625
:10071000082F26E0129FF001112434E5039FE00D1D
:10072000F11D1124EF0DF11DEE0FFF1FE05FFE4FD5
:1007300005911491F60182810E3FFCE51F0709F037
:1007400040C0882309F441C09091330281E0890FB1
:100750008770987F853020F4892B8093330202C004
:10076000909333028091330287702FEF829FC001F4
:10077000112495958795959587959927909389004C
:100780008093880090938B0080938A0090938D00D3
:1007900080938C0040913302509134026091350275
:1007A000709136028FE090E00E94D7286091550347
:1007B0007091560380915703909158030E942F1215
:1007C00004C001153DE51307B1F1F60182818823CC
:1007D00081F0033E8CE5180709F458C008F04BC0BF
:1007E000013EECE51E0709F03FC010922F020E9467
:1007F000B00F17FFBFC0F601828181114DC00B3CC5
:10080000FCE51F0709F40BC108F440C1033D9CE55A
:10081000190709F49AC308F09FC30F3CFCE51F07B2
:1008200009F49EC708F0B6C70D3C3CE5130709F074
:1008300001C1F6018281882311F40C94140C81E02B
:1008400028960FB6F894DEBF0FBECDBFDF91CF91D3
:100850001F910F91FF90EF90DF90CF90BF90AF90DE
:100860009F908F900C949A0F023EFCE51F0709F0B1
:10087000C0CF81E00EC0043E2CE5120749F0053ED2
:100880003CE5130709F0B5CF84E003C082E001C066
:1008900083E080932F02ABCF8091FD018093EE0126
:1008A0001092FD0180912F02813071F048F082306A
:1008B000D1F08430F1F486EE0E94C02088E117C0A8
:1008C00082EE0E94AF1F15C08AE79CE00E946F1461
:1008D00088E10E94AF1F88E10E94531F8AE69CE0D6
:1008E0000E946F1406C082EE0E94AF1F87E50E942F
:1008F000C0208FE39CE90197F1F700C00000780168
:10090000E894F7F85CE0A52EB12CC7010A2C02C0D0
:10091000969587950A94E2F7282F2F7041F0822F41
:1009200090E02A3010F44D9604C0069702C087E28A
:1009300090E00E94C02094E0A91AB108ECEFAE1636
:10094000EFEFBE0611F780912F02813039F040F0B1
:10095000823031F0843051F488E206C08CE204C069
:1009600082EE0E94531F02C00E94C0208091EE01BF
:100970008093FD01003FFCE51F07B1F180F4083DC5
:100980003CE51307C9F0093D8CE51807C9F1073D9F
:100990009CE51907C1F526E241EE61EE10C0023F69
:1009A000ECE51E0749F120F1033F2CE5120759F54C
:1009B00027E245EE66EE03C027E245EE65EEC6018E
:1009C00028960FB6F894DEBF0FBECDBFDF91CF9152
:1009D0001F910F91FF90EF90DF90CF90BF90AF905D
:1009E0009F908F900C94E12326E241EE60EEE7CFDA
:1009F00027E245EE64EEE3CF26E241EE62EEDFCF82
:100A000028E241E0DBCFF6018281882319F01092C1
:100A1000EF01F5CE0B3CFCE51F0709F08CC2F60197
:100A20008281882309F400C78091FA01833090F411
:100A30008F5F0EC00E3C1C4508F09FC6F6018281F8
:100A4000882309F4F1C68091FA01882319F08150B6
:100A50008093FA016091F6017091F7018091F8019D
:100A60009091F90128960FB6F894DEBF0FBECDBF66
:100A7000DF91CF911F910F91FF90EF90DF90CF907A
:100A8000BF90AF909F908F900C94DD0D033C3CE5A0
:100A90001307E9F4F6018281882309F4C5C6809121
:100AA000FD01827279F128960FB6F894DEBF0FBE71
:100AB000CDBFDF91CF911F910F91FF90EF90DF900D
:100AC000CF90BF90AF909F908F900C949D0F043C5F
:100AD0008CE5180758F1073C9CE5190709F4CDC5CA
:100AE00008F0D7C5053CFCE51F0709F40BC608F064
:100AF00017C6F6018281882309F496C68091FD010C
:100B0000827289F228960FB6F894DEBF0FBECDBF71
:100B1000DF91CF911F910F91FF90EF90DF90CF90D9
:100B2000BF90AF909F908F900C94A60F06319CE5DC
:100B3000190708F089C10230ECE51E0708F429C145
:100B4000F6018281882309F462C20E94AD258111D9
:100B500002C00E94B8250E949C2590934602809373
:100B600045020F30FCE51F0709F4CDC008F042C074
:100B700008303CE5130709F4A8C0F0F404309CE504
:100B8000190709F490C068F40230FCE51F0709F466
:100B900086C003301C4509F0D9C0809145028260AF
:100BA000D3C006303CE5130709F487C008F089C0BC
:100BB000809145028860C8C00B309CE5190709F494
:100BC00093C068F40930FCE51F0709F482C00A30BD
:100BD0001C4509F0BBC08091450288607EC00D3085
:100BE0003CE5130709F484C008F085C080914502F4
:100BF0008D7FAAC0073F9CE5190709F457C050F53F
:100C00000231FCE51F0709F486C068F400313CE5B9
:100C1000130709F47CC001311C4509F097C080918D
:100C200045028F7B91C004319CE5190709F483C00C
:100C300008F475C005311C4509F088C08091450253
:100C400082FB222720F991E0922790FB82F990FB0A
:100C500083F97AC00A3F2CE5120709F450C058F412
:100C6000083F8CE5180729F1093F1C4509F06EC0C3
:100C7000809146025CC00C3FECE51E0709F454C0AD
:100C800070F10D3F1C4509F061C080914602982F1C
:100C9000909591708E7F892B90FB81F949C080914E
:100CA0004502816051C08091450217C08091460283
:100CB00019C08091460282603BC0809145028061EC
:100CC00043C08091450280623FC0809145028064AC
:100CD0003BC080914502806837C0846035C08091F8
:100CE00046028260816024C0809145028E7F2CC0C4
:100CF0008091450217C080914502877F25C0809171
:100D000046028D7F15C0809145028F7E1DC0809167
:100D100045028F7D19C0809145028F7715C0809163
:100D20004502877F8B7F10C0809146028D7F8E7F2A
:100D3000809346020BC08091450287FB222720F951
:100D400091E0922790FB87F98093450260914502DC
:100D50001091460284E090E00E94C528612F81E254
:100D600090E00E94C5281092FD0128960FB6F894D5
:100D7000DEBF0FBECDBFDF91CF911F910F91FF90CE
:100D8000EF90DF90CF90BF90AF909F908F900C949A
:100D90002B1F0115FCE51F0709F044C0F6018281F5
:100DA000882309F441C51092FD010E942B1FFFEF1B
:100DB00004E31CE0F15000401040E1F700C00000E7
:100DC000F89481E08093E00080E28093D800109254
:100DD000C9008FE19EE40197F1F700C000001DBA41
:100DE000109268001CBC10BE1FBA10927A001092BC
:100DF0006E0010926F0010927100109272001092AB
:100E0000C9001092BC0014B817B81AB81DB810BAAF
:100E10001092BC0015B818B81BB81EB811BA0C94C3
:100E2000003F02C501301C4509F0F1C0F601828186
:100E3000882309F4F9C480915A02982F909590FB69
:100E400080F980935A02F0C406313CE51307A9F5F6
:100E50009091FD01F6018281882381F09A7A81E0E8
:100E600009F480E08093F001811102C069E201C0C1
:100E700065E386EC92E00E9464250BC08091F0014E
:100E8000811102C069E201C065E386EC92E00E9434
:100E9000392528960FB6F894DEBF0FBECDBFDF917F
:100EA000CF911F910F91FF90EF90DF90CF90BF9067
:100EB000AF909F908F900C943226023C1C4509F015
:100EC000A6C0F6018281882309F4AEC48091F601A0
:100ED00080FF2CC08E7F8093F6016091F6017091A7
:100EE000F7018091F8019091F9010E94DD0D1092B7
:100EF0007002FFEF00E712E0F15000401040E1F710
:100F000000C0000028960FB6F894DEBF0FBECDBF1C
:100F1000DF91CF911F910F91FF90EF90DF90CF90D5
:100F2000BF90AF909F908F900C942C0D8160809318
:100F3000F601869585CC0C3C2CE5120708F476C0AA
:100F4000033D9CE5190709F005C4F6018281882359
:100F500009F46AC488E174CC0D3DFCE51F0749F42F
:100F6000F6018281882309F45FC482E080932C0219
:100F70005BC40E3D2CE5120738F5053D3CE5130733
:100F800039F4F6018281882309F44EC483E258CCF7
:100F9000053D8CE5180768F4F6018281882309F481
:100FA00043C40E94C20D8951893008F4ABCD89E158
:100FB00047CC0C3D1C4559F5F6018281882309F484
:100FC00033C410922C0230C40E3DECE51E07C9F468
:100FD000F6018281882309F427C428960FB6F89475
:100FE000DEBF0FBECDBFDF91CF911F910F91FF905C
:100FF000EF90DF90CF90BF90AF909F908F900C9428
:10100000B825C801875F9C45079708F499CDF6017C
:10101000828100811181882331F1C8010E947826E4
:10102000F82E682FC8010E94F12621C0033C3CE540
:10103000130709F42FCD08F04ECD06319CE51907B2
:1010400008F011C30230ECE51E0708F079CD011558
:10105000FCE51F0709F4A2CE01301C4509F4E6CED9
:10106000F60100811181C8010E94C426F82EB80142
:101070008F2D0E94B60F182F382FF601258122954B
:101080002F700281011110925B03809159038770C8
:10109000A9F0002399F080E2810F883078F082E097
:1010A0002F8338879E830E9452278091590387702F
:1010B000EE24E3942F8138859E818111E12CA92EA5
:1010C000A2944FE0A422B12CFCE0AF16B10408F0CA
:1010D00097C2F501EA5AFF4F0C942129892F807F8E
:1010E0009F70F92E882319F0F29480EFF8220023E4
:1010F000B9F0FF2009F415C280E2810F883010F0AA
:10110000311106C09091FD01F92AF092FD0105C050
:1011100090915B03F92AF0925B030E94322601C290
:10112000812F38870E94531F3885FF2009F468C239
:10113000105EF094183010F0311106C09091FD014E
:10114000F922F092FD0105C090915B03F922F09223
:101150005B030E94322654C2492F407F892F8F7033
:10116000403211F08295807F332319F03130E9F05D
:1011700025C0002381F030915C03222351F02130FF
:1011800041F4982F932B391709F43AC290935C03DA
:1011900037C2832B17C0222319F0213009F430C243
:1011A0008E830E942C268E811DC0002321F02230C8
:1011B00008F026C207C0211123C214C0002329F061
:1011C0002111AFC10E94491F1BC2222359F01933BC
:1011D00009F0B9C10FEF27EE33E001502040304055
:1011E000E1F7AFC10E943E1F0BC2292F269526951D
:1011F000237030E02115310521F02130310559F0FF
:10120000FFC1002319F0812F937002C080E090E0AD
:101210000E94A523FEC1002319F0812F937002C004
:1012200080E090E00E948F23F4C1892F837009F041
:1012300070C00111ECC1812F829586958770880F4F
:10124000880F412F4F7050E060E070E04A015B0171
:10125000082E04C0880C991CAA1CBB1C0A94D2F747
:1012600014FF12C00FE010E020E030E004C0000FD7
:10127000111F221F331F8A95D2F7B901A80140958B
:1012800050956095709503C040E050E0BA01969586
:1012900096959370892F90E08230910529F18330E3
:1012A0009105C9F000915D0310915E0320915F03E9
:1012B00030916003019759F0482959296A297B29FF
:1012C000CB01BA0160237123822393230AC0802AB1
:1012D000912AA22AB32ACB01BA01682979298A293D
:1012E0009B290E948C2793C1482959296A297B2967
:1012F00080915D0390915E03A0915F03B0916003C4
:101300008A019B01082719272A273B27C901B80111
:10131000E8CF002319F0892F817001C086958823BA
:1013200009F475C1812F829586958770880F880F83
:10133000412F4F7050E060E070E04A015B01082EE1
:1013400004C0880C991CAA1CBB1C0A94D2F714FF79
:1013500012C00FE010E020E030E004C0000F111FC9
:10136000221F331F8A95D2F7B901A80140955095E5
:101370006095709503C040E050E0BA01969596954F
:101380009370892F90E082309105E9F083309105C8
:1013900079F1009155031091560320915703309134
:1013A0005803019759F0482959296A297B29CB010B
:1013B000BA01602371238223932320C0802A912ABB
:1013C000A22AB32A15C0482959296A297B29809164
:1013D000550390915603A0915703B09158038A0189
:1013E0009B01082719272A273B27C901B80106C0F6
:1013F000CB01BA01682979298A299B290E942127D2
:1014000006C19F70F92E002339F0892F0E946B27A7
:10141000812F0E94491FFBC0812F0E943E1F8F2DEC
:101420000E942D27F4C0812F323FC9F128F4303FAC
:1014300049F0313F79F170C0333FC1F1343F09F4D5
:101440004DC06AC0002311F12111DAC0292F2F717C
:1014500081E090E0A0E0B0E0AC01BD0104C0440F29
:10146000551F661F771F2A95D2F7809155039091DB
:101470005603A0915703B09158038A019B01082796
:1014800019272A273B27C901B80125C0223008F0B7
:10149000B7C0DCCF002329F0892F8F712EC0002325
:1014A000D9F3892F8F710E942D27AAC0002381F0C4
:1014B000292F2F7181E090E0A0E0B0E0BC01CD01C8
:1014C00004C0660F771F881F991F2A95D2F703C0A3
:1014D00060E070E0CB010E94212792C0002381F0E0
:1014E000192F1F71812F0E946B2728E0129FC001C6
:1014F0001124836080935903812F0E946B2780C041
:1015000081E02F830E9452272F81223008F478C077
:1015100082E00E94522774C0002339F0222309F48C
:10152000BBCF812F0E94AF1F6BC0222309F4B9CF1C
:10153000893349F43FEF87EE93E03150804090408B
:10154000E1F700C00000812F0E94531F59C0323FB5
:10155000B1F028F4303F49F0313FF9F028C0343F72
:10156000B9F058F0353F71F022C0002309F451C0A2
:101570009091720281E0892708C081E008270093DA
:10158000720247C0011145C081E08093720241C0E0
:1015900001113FC0109272023CC0002329F08091DB
:1015A0007102882329F329C0222311F332C08091CC
:1015B00071022223C1F0882341F09091720281E0F0
:1015C00089278093720210927102812F002319F0F3
:1015D0000E94AF1F1EC00E94531F86E0F6011192A9
:1015E0008A95E9F716C08823A1F0011112C09091E5
:1015F000720281E08927809372021092710209C001
:10160000F8E0AF1AB10804E0A016B10410F40E948B
:10161000BB23EE2009F408C18091590380FD04C169
:10162000F60112828595859585950E946B27C601E6
:101630000E944B0380915903859585958595289641
:101640000FB6F894DEBF0FBECDBFDF91CF911F91D3
:101650000F91FF90EF90DF90CF90BF90AF909F9051
:101660008F900C942D2706313CE5130709F4F0CB3D
:10167000023C1C4509F425CCF3CCF6018281882379
:1016800009F4D2C06091F8012FEF620F08F46FEFF8
:1016900011C0093C3CE5130789F008F04FC0F60182
:1016A0008281882309F4C0C06091F8012FEF621B8A
:1016B00008F460E021E04091F9010EC0F60182815A
:1016C000882309F4B1C04091F9012CE0420F08F4DD
:1016D0004FEF21E06091F8018091F70128960FB655
:1016E000F894DEBF0FBECDBFDF91CF911F910F9158
:1016F000FF90EF90DF90CF90BF90AF909F908F9032
:101700000C94C30EF6018281882309F48DC0809168
:10171000F70121E04091F9016091F801845FDECF8B
:10172000F6018281882309F47FC08091F70121E0CE
:101730004091F9016091F8018C50D0CFF60182817F
:10174000882309F471C04091F9012CE0421B08F490
:1017500040E0BFCF043DECE51E0708F45EC846C07C
:10176000F6018281882309F45FC00E94C20D865071
:10177000823008F4C7C986E063C8F60182818823F5
:1017800009F452C00E94C20D8250833008F4BAC9D5
:1017900082E056C8013D9CE5190769F4F601828193
:1017A000882309F441C00E94C20D8F50853008F48F
:1017B000A9C98FE045C8023D1C4560F4F60182814D
:1017C000882391F10E94C20D8950853008F49AC98E
:1017D00089E036C8F6018281882331F10E94C20D6A
:1017E0008551823008F48EC985E12AC80D3DFCE59B
:1017F0001F0709F4B5CB60F4053D3CE5130709F478
:10180000C0CB08F4C9CB0C3D1C4509F4D5CB28CC82
:101810000E3DECE51E0709F4DBCBC801875F9C4554
:10182000079708F48DC91CCC28960FB6F894DEBF34
:101830000FBECDBFDF91CF911F910F91FF90EF9021
:10184000DF90CF90BF90AF909F908F900895909130
:10185000450292FF0DC0282F2871283019F4877F88
:10186000846006C0282F2471243011F48B7F886097
:1018700093FF0DC0282F2871283119F4877E8461C9
:1018800006C0282F2471243111F48B7E88612091A9
:10189000460220FF0DC0382F3871383019F4877F89
:1018A000816006C0382F3171313011F48E7F88602D
:1018B00021FF0DC0282F2871283119F4877E8161FE
:1018C00006C0282F2171213111F48E7E886194FD8C
:1018D000877E0895282F277081E090E001C0880F4F
:1018E0002A95EAF7809590915B03892380935B03A7
:1018F0000C943226282F277081E090E001C0880FD9
:101900002A95EAF790915B03892B80935B030C94F3
:101910003226CF93E82F873080F580910701909190
:101920000801892B09F047C0CE2F64E670E080E4FF
:101930000E9401289093080180930701892BD1F41C
:1019400064E670E082E10E94582890930801809339
:101950000701892B79F481E090E001C0880FCA95D6
:10196000EAF764E670E080950E9458289093080199
:1019700080930701CF910C94AD2890E0FC0137973C
:10198000E730F105C0F4EE59FF4F0C942129209A5D
:10199000289811C0219A29980EC0229A2A980BC023
:1019A000239A2B9808C0529A5A9805C0539A5B986C
:1019B00002C03E9A4698CF910895CF93873008F0A1
:1019C0003FC08091070190910801892B09F041C027
:1019D00064E670E080E40E940128909308018093FF
:1019E0000701892B11F0C0E027C064E670E083E1B5
:1019F0000E9458289093080180930701892B99F73A
:101A000064E670E081E40E940128909308018093CD
:101A10000701892B41F784E690E00E94882897FF10
:101A200005C09093080180930701DDCFC82FC095B2
:101A300010920801109207010E94AD288C2F0AC055
:101A40009FB18FB1807F869586959370892B809505
:101A500001C080E0CF910895EF92FF920F931F9302
:101A6000CF93DF938091F60180FF2EC0EFB6F09008
:101A7000BC00F8948091BC008B7F8093BC008BB13C
:101A80008C7F8BB95098589A5198599A35E03A956D
:101A9000F1F700008AB18C7F8AB985E08A95F1F769
:101AA0000000519A5998E5E0EA95F1F70000509A44
:101AB0005898F5E0FA95F1F7000084E80E94C723F2
:101AC000C6E7D2E08E010DC080E090E0FC01EA584C
:101AD000FD4F11821082128204968C339105B1F76A
:101AE000C5CFF2E0023B1F0731F0F80181918F0171
:101AF0000E94C723F6CF5098589A35E03A95F1F7EF
:101B000000005198599A85E08A95F1F70000EFBEE0
:101B1000F092BC00579A8BB18F779BB190682FB72A
:101B2000F894E2E0C23BDE0789F0399148E09BB9C6
:101B3000000000C037FF8BB9330F000000C000C0A9
:101B400000C08BB900C04A9591F7EBCF2FBFDF9152
:101B5000CF911F910F91FF90EF9008959091F60112
:101B600090FF0FC020E030E0F901EA58FD4F81837B
:101B7000608342832C5F3F4F2C333105A9F70C94CF
:101B80002C0D08958091F60180FF02C0869508957E
:101B900080E008958091F601282F269530E02115E8
:101BA000310519F48170826005C02532310524F0B9
:101BB000817088648093F6010895CF93DF9300D0FD
:101BC00000D0CDB7DEB7AB01BC0149835A836B832C
:101BD0007C830E94CA0D49815A816B817C8188E097
:101BE00090E00F900F900F900F90DF91CF910C9499
:101BF000D728E6EFF1E083E0808311828FEF8283C4
:101C00008383148260817181828193810C94DD0DC4
:101C1000AF92BF92CF92DF92EF92FF920F931F93FA
:101C2000CF93DF93D82EC62EE901E42FF0E06111A7
:101C300006C0E85FFC4F4491E42F842F7BC0E62E62
:101C4000F12C26E0829FC00111240FEF10E0B801B3
:101C50000E94F9285BEA56039001579F300D11242A
:101C60002D0D311D2D0D311D822F880F280FC8011C
:101C70008E199F098E9FD0018F9FB00D9E9FB00D32
:101C800011249B2F2C9D60011124CD2CDD245801A3
:101C9000AC18BD08AE9E6001AF9ED00CBE9ED00CAD
:101CA00011245801A21AB108AE9C9001AF9C300DCE
:101CB000BE9C300D1124232F3327021B130B0E9FC4
:101CC00090010F9F300D1E9F300D1124832F623025
:101CD000710591F04CF461157105E9F06130710501
:101CE000C1F4842F4D2D17C06430710571F044F09C
:101CF0006630710581F00DC0842F4B2F932F0BC0E0
:101D0000E42F4B2F9E2F8D2D06C08B2F942F432F0A
:101D100002C08B2F9D2DE42FF0E0E85FFC4F449133
:101D2000E82FF0E0E85FFC4F8491E92FF0E0E85FF6
:101D3000FC4FE49149838883EA83DF91CF911F911F
:101D40000F91FF90EF90DF90CF90BF90AF900895EC
:101D5000CF93DF9300D000D0CDB7DEB79091F601DE
:101D600090FF0AC09E012F5F3F4F0E94080E4B81DB
:101D700069818A810E94AE0D0F900F900F900F9095
:101D8000DF91CF9108955F926F927F928F929F9291
:101D9000AF92BF92CF92DF92EF92FF920F931F9379
:101DA000CF93DF9300D000D0CDB7DEB7182F762EBB
:101DB000042F622E9091F60190FF6DC0E92FE695F9
:101DC000AE2FB0E0A05EBE4F8C9180936F029E7FDD
:101DD000923061F49E012F5F3F4F812F0E94080EC9
:101DE0004B8169818A810E94AE0D43C0823019F413
:101DF0000091F9013EC0863019F41091F70139C005
:101E00008930D9F38931A9F5E9518E2F8170582E87
:101E1000E695F0E0E85FFB4FA590B49086E7C82E0A
:101E200082E0D82EE12CF12CBB249FE0892E912C4E
:101E3000EA9CC001EB9C900DFA9C900D1124B4011A
:101E40000E94F928812F511002C0860F01C0861B05
:101E50009601402F672D0E94080E8FEFE81AF80AAE
:101E600084E0C80ED11C8FE0E816F10409F70E9447
:101E70002C0D1093F7017092F8010093F901662080
:101E800051F06091F6017091F7018091F801909105
:101E9000F9010E94DD0D0F900F900F900F90DF91D0
:101EA000CF911F910F91FF90EF90DF90CF90BF9057
:101EB000AF909F908F907F906F905F9008959091DA
:101EC000F60190FF36C09170811102C0926006C089
:101ED000853210F0986402C0880F982B9093F60119
:101EE000662351F06091F6017091F7018091F8013D
:101EF0009091F9010E94DD0D6091F601669570E008
:101F00004BE050E083E191E00E94542A892B19F0C4
:101F10001092700202C00E944E2481E080936C02F5
:101F200020E04091F9016091F8018091F7010C9453
:101F3000C30E089561E00C945F0F8091F6018695C1
:101F4000815009F484E261E00C945F0F8091F60106
:101F500086958F5F853208F081E061E00C945F0F19
:101F600060912F028CE090E00C94C528CF93DF9312
:101F700026E0729FF001112434E5839FE00DF11DEE
:101F80001124E60FF11DEE0FFF1FE05FFE4FC5911C
:101F9000D491CE01C238D10569F1B0F4C133D10575
:101FA00009F475C048F4C932D10509F469C0CA32D0
:101FB000D10509F473C079C0C533D10509F459C0FE
:101FC000C933D105B9F071C0C33ED10571F138F400
:101FD000C03ED105B1F0C23ED10511F166C0C63E8A
:101FE000D105B9F1C73ED105C9F1C43ED10509F00B
:101FF0005CC024C02091450220FD29C221FD27C2DA
:102000002BC22091450220FD1CC22091460220FFD8
:1020100023C28091450284FDC6C183EE90E01CC2BC
:102020002091450222FF18C2F4CF8091450282FD23
:102030000BC28091460280FD0AC2EBCF209146027E
:1020400021FF0AC28091450284FDADC187EE90E078
:1020500003C22091450223FFFFC1F4CF80914502C6
:1020600083FDF8C18091460281FFECCF84EE90E0C1
:10207000F3C12091450225FFEFC189E290E0ECC158
:102080002091450225FFE8C185E390E0E5C120915C
:10209000450226FFE1C18AE290E0DEC120914502BF
:1020A00026FFDAC181E390E0D7C1C11540E5D4072E
:1020B00008F047C0C11520E4D20708F034C1C83E7B
:1020C000D10518F5C03ED10508F0C6C1C83AD10502
:1020D00070F4C53AD10508F0B1C0C130D10509F49A
:1020E000BBC108F460C1249708F45DC1B5C1CF3B02
:1020F000D10508F4AEC0C03CD10508F454C1FE01BE
:10210000EE0FFF1FE857FE4F03C1C11530E2D307A2
:1021100060F4C11541E0D40708F09EC1C03FD1056D
:1021200008F441C1CE01906597C1C11580E3D8077D
:1021300008F0F1C0FE01FF70EE0FFF1FE85FFC4FDB
:10214000E7C0C11595E5D90708F044C0C11524E5DD
:10215000D20708F002C1C11532E5D30710F5C11549
:1021600041E5D40708F0E4C08C2F837021E030E013
:1021700002C0220F331F8A95E2F73C68CE0174E05B
:10218000969587957A95E1F78370382BEC2FEF7051
:10219000E695E69540E2E49FC0011124822B932B43
:1021A0005BC12C2F26952695AE0143705527C1158E
:1021B000D34508F0C3C080E2289F9001112481E03C
:1021C00090E002C0880F991F4A95E2F7822B932B6B
:1021D0009C6842C1C1159AE5D907A8F4C11529E543
:1021E000D20708F0C9C0C11536E5D30708F4BBC053
:1021F000C11548E5D40708F4D6C0FC2FEE27CF015F
:10220000806F906A29C1C1158BE5D80708F4CBC04F
:10221000C1159CE5D90708F4C2C0CE0190568115BE
:10222000904208F0C0C08D2F8F710E94270CFE01D4
:10223000FF27F0628F719F01382BAFC0C53AD105DF
:1022400009F4B4C0C63AD10509F0B3C082E890E4FD
:1022500003C1C83AD10509F4AFC0C93AD10509F4A0
:10226000AEC0CA3AD10509F4ADC0CB3AD10509F4E4
:10227000ACC0CC3AD10509F4ABC0CB3BD10509F4D5
:10228000AAC0CC3BD10509F4A9C0CD3AD10509F4C7
:10229000A8C0C03BD10509F4A7C0CE3AD10509F4C6
:1022A000A6C0CF3AD10509F4A5C0C13BD10509F4B8
:1022B000A4C0C23BD10509F4A3C0C33BD10509F4B6
:1022C000A2C0C43BD10509F4A1C0C53BD10509F4A6
:1022D000A0C0C63BD10509F49FC0C73BD10509F496
:1022E0009EC0C83BD10509F49DC0C93BD10509F486
:1022F0009CC0CD3BD10509F49BC0CE3BD10509F470
:102300009AC0CA3BD10509F499C080E094E4A4C006
:1023100085919491A1C0CE019927D3FF02C0986CFA
:102320009BC0906C99C0FE01FF70CF01906A94C071
:10233000FC2FEE27CF01816F906A8EC090E2299F1B
:102340009001112481E090E002C0880F991F4A9506
:10235000E2F7822B932B9A687FC0FC2FEE27CF01E8
:10236000846F906A79C08C2F0E94270C8F7190E047
:10237000982F8827906270C08C2F8F700E94270C36
:10238000FE0194E0F695E7959A95E1F7EF70F0E09D
:10239000FE2FEE27F0699F01282BC9015DC0CE01F9
:1023A0009927906659C080E090E056C081E890E49B
:1023B00053C083E890E450C082EE94E44DC089EEAF
:1023C00094E44AC08AEE94E447C085EB94E444C0A8
:1023D00086EB94E441C083EB94E43EC084EB94E448
:1023E0003BC087EB94E438C08CEC94E435C08DECB2
:1023F00094E432C083E895E42FC08AE895E42CC0C9
:1024000082E995E429C084E995E426C081E296E456
:1024100023C083E296E420C084E296E41DC085E2F6
:1024200096E41AC086E296E417C087E296E414C0E8
:102430008FE694E411C080E794E40EC08AE296E44B
:102440000BC089E390E008C082EE90E005C080EE0A
:1024500090E002C086EE90E0DF91CF910895CF9298
:10246000DF92EF92FF920F931F936C01EE24FF24F3
:10247000C114D104E104F10411F0E0E103C06B01E7
:102480007C01E0E033272F2D1E2D0D2D01151105A8
:102490002105310519F0E85F68017901970186018E
:1024A000F4E03695279517950795FA95D1F701151C
:1024B00011052105310519F0EC5F680179019701DB
:1024C000860152E036952795179507955A95D1F7CD
:1024D000011511052105310519F0EE5F680179013B
:1024E000970186013695279517950795012B022BA5
:1024F000032B09F0EF5F56985E9825982D98269843
:102500002E9827982F980E2F10E0F8013197E7307A
:10251000F105A8F4E759FF4F0C942129259A2D9A2B
:102520000EC0259A2D9A269A2E9A09C0259A2D9A80
:1025300004C0259A2D9A269A2E9A279A2F9A1F918F
:102540000F91FF90EF90DF90CF90089580E290E0A0
:1025500090930801809307018091F40181110EC0CE
:102560000E94FB2781E08093F4012FEF83ED90E33D
:10257000215080409040E1F700C0000064E670E028
:1025800080E40E9401289093080180930701892B21
:1025900009F04EC064E670E080E00E9458289093F5
:1025A000080180930701892B09F042C064E670E0BE
:1025B00080E00E9458289093080180930701892B9E
:1025C000B9F564E670E08FE30E9458289093080103
:1025D00080930701892B61F50E94AD2864E670E0C5
:1025E00080E40E9401289093080180930701892BC1
:1025F000F9F464E670E08CE00E945828909308019A
:1026000080930701892BA1F464E670E080E00E94CA
:1026100058289093080180930701892B49F464E6B8
:1026200070E08FE30E94582890930801809307017F
:102630000E94AD28809107010895CF93DF935698AB
:102640005E9825982D9826982E9827982F98C8E858
:10265000D0E08FEF90E099838883AAE8B0E01196EC
:102660009C938E93ECE8F0E091838083259A2D9AD9
:102670002FEF80E792E0215080409040E1F700C0CA
:102680000000269A2E9A2FEF80E792E0215080409A
:102690009040E1F700C00000279A2F9A2FEF80E7C3
:1026A00092E0215080409040E1F700C00000259862
:1026B0002D982FEF80E792E0215080409040E1F785
:1026C00000C0000026982E982FEF80E792E021505E
:1026D00080409040E1F700C0000027982F9880913B
:1026E000330287702FEF829FC00111249595879543
:1026F0009595879599279983888311969C938E93B6
:102700009183808356985E9825982D9826982E98C8
:1027100027982F98DF91CF91089584B1807F84B955
:1027200085B1807F85B98AB1837F8AB98BB1837F78
:102730008BB93E984698089580B38C7080BB81B366
:10274000836F81BB08959F92AF92BF92CF92DF9229
:10275000EF92FF920F931F93CF93DF938091070126
:1027600090910801892B91F08091F3018F5F809304
:10277000F30181110BC00E94A61290E09093080112
:1027800080930701892B11F40E941D1307E312E0C7
:102790002EE3E22E22E0F22E6801C0E0912C97E0B9
:1027A000A92EAC0E8C2F0E94890C8A2D0E94890CB8
:1027B0008C2F0E94DD0CF6019081981721F0808308
:1027C000BB24B39401C0B12C8A2D0E94DD0CF7010B
:1027D0009081981719F0808381E001C080E0B82AC9
:1027E0009B280E948D13CF5FFFEFCF1ADF0A8FEF78
:1027F000E81AF80AC73099F60E9404256AEF70E0DB
:102800000E94F9289C01682F8091F2018823E9F148
:102810001092F201E0912D02F0912E02DF011E963E
:1028200090E07BEF8AEFE82EF12C80818B3FA9F0BE
:10283000482F50E0681728F0E901C41BD50BAE0102
:1028400006C06701C41AD50AA601420F531F4E31B4
:10285000510514F0708301C091E03196EA17FB072F
:1028600021F79093F201911002C0911110C01092C3
:10287000F101A0912D02B0912E029091F201EBE4B2
:10288000F2E080E03EE03E0F07C09110F0CF809173
:10289000F1018111ECCF16C0E80129918E01408130
:1028A000421741F04C914B3F21F46C93208391E00F
:1028B00001C081E0119631963E13EECF9093F20164
:1028C0008093F101892DDF91CF911F910F91FF909E
:1028D000EF90DF90CF90BF90AF909F900895CF93EF
:1028E000DF93EC0180EEFE01099581EEFE01DF91A0
:1028F000CF910994CF92DF92FF920F931F93CF93C2
:10290000DF931F92CDB7DEB7F82E8B0199830E941B
:10291000AA19998181111CC0CF2CD92E011511053E
:10292000B1F08091E80085FD0AC08091E8008E77C3
:102930008093E8000E94AA19882381F309C0F60158
:1029400081916F018093F10001501109E7CF80E080
:102950000F90DF91CF911F910F91FF90DF90CF905B
:1029600008951F93CF93DF93CDB7DEB7AA970FB625
:10297000F894DEBF0FBECDBFE4E2F2E088E08E0F38
:102980009091F10091938E13FBCF809125028330BB
:1029900009F460C030F4813071F0823009F49CC0D9
:1029A000B3C08A3009F488C08B3009F46BC0893019
:1029B00009F0AAC020C080912402813A09F0A4C085
:1029C0008091E800877F8093E800809128029091B1
:1029D0002902892B21F460E280E092E003C060E0EC
:1029E00080E090E070E00E94301A8091E8008B77E0
:1029F0008093E80089C080912402813209F084C06C
:102A00008091280290912902029708F07DC0809160
:102A1000E800877F8093E8008091E80082FD05C090
:102A2000809122028111F8CF6FC02091F300809134
:102A3000F20090E0922B029729F48091F1008B7FB5
:102A4000813021F48091F1008093FF018091E800B2
:102A50008B7756C080912402813A09F055C080914D
:102A6000280290912902892B09F04EC08091E8003C
:102A7000877F8093E8008091E80080FFFCCF809101
:102A8000060139C0809124028132F1F5809128023B
:102A900090912902892BC1F58091E800877F80936E
:102AA000E8000E94DC1980912602809306011092B2
:102AB000FD010E942B1F28C080912402813221F544
:102AC0008091E800877F8093E8000E94DC19809164
:102AD00027028093FE0118C080912402813AA1F45C
:102AE0008091E800877F8093E8008091E80080FF74
:102AF000FCCF8091FE018093F1008091E8008E77F9
:102B00008093E8000E94DC198091E80083FFD6C121
:102B10008091240290912502492F50E04A305105BE
:102B200008F0CCC1FA01E059FF4F0C9421298038FC
:102B300021F0823809F0C2C108C080912002909132
:102B40002102992389F082600FC0809128028F7042
:102B5000873008F0B3C18093E9008091EB0085FBDA
:102B6000882780F91092E9009091E800977F909370
:102B7000E8008093F1001092F10074C1282F2D7F9E
:102B800009F09CC1882319F0823061F097C18091CF
:102B90002602813009F092C1933009F080E08093E1
:102BA00021022EC08091260281112AC08091280224
:102BB0008F702FEF280F263008F080C18093E90036
:102BC0002091EB0020FF1CC0933021F48091EB009A
:102BD000806214C09091EB0090619093EB0021E033
:102BE00030E0A90102C0440F551F8A95E2F74093D7
:102BF000EA001092EA008091EB0088608093EB007D
:102C00001092E9008091E800877F2FC1811156C1A1
:102C1000109126021F778091E3008078812B8093AA
:102C2000E3008091E800877F8093E8000E94DC1930
:102C30008091E80080FFFCCF8091E3008068809362
:102C4000E300111102C082E001C083E08093220200
:102C500035C18058823008F031C1809126029091B0
:102C600027028C3D53E0950779F583E08A838AE259
:102C700089834FB7F894DE01139620E03EE051E2DD
:102C8000E32FF0E050935700E49120FF03C0E2955A
:102C9000EF703F5FEF708E2F90E0EA3010F0C79634
:102CA00001C0C0968D939D932F5F243149F74FBF8C
:102CB0008091E800877F8093E8006AE270E0CE01AF
:102CC00001960E94301ABDC04091280250912902FD
:102CD000292F332723303105B9F06CF42130310529
:102CE00009F4FBC02230310509F0E8C08BE390E025
:102CF000EEEBF4E054C02132310509F433C0223246
:102D0000310509F43CC0DAC0992781309105D1F032
:102D10005CF4892B09F0D2C0E1E4F5E0E4918E2F58
:102D200090E0E1E4F5E038C08230910599F0039736
:102D300009F0C4C0EBE0F5E0E4918E2F90E0EBE009
:102D4000F5E02AC0E9E2F5E0E4918E2F90E0E9E2B7
:102D5000F5E022C0E1E1F5E0E4918E2F90E0E1E1C1
:102D6000F5E01AC04115510509F4BCC041305105C8
:102D700009F0A4C089E090E0E9EEF4E010C041154C
:102D8000510509F4B4C04130510509F097C081E7FD
:102D900090E0EDE0F4E003C0009709F48FC02091CB
:102DA000E800277F2093E80020912A0230912B022F
:102DB0002817390708F4C90140E0009789F12091EC
:102DC0002202222309F43DC02530D9F12091E800E8
:102DD00023FD37C02091E80022FD2FC02091E8009C
:102DE00020FFEBCF4091F3002091F20030E0342B34
:102DF000009759F02830310540F444914093F10098
:102E0000319601972F5F3F4FF3CF41E028303105D6
:102E100009F040E02091E8002E772093E800CDCF24
:102E20004111CDCF0AC080912202882351F0853014
:102E300041F08091E80083FD04C08091E80082FFAA
:102E4000F2CF8091E8008B778093E80037C080381C
:102E5000A9F58091E800877F8093E80080912302A4
:102E60008093F1008091E8008E778093E8000E94C3
:102E7000DC1924C0811122C0109126021230F0F416
:102E80008091E800877F8093E800109323020E94DE
:102E9000DC19111106C08091E30087FD02C081E0BA
:102EA00001C084E08093220242E061EC81E00E9454
:102EB000FB1942E261EC82E00E94FB198091E8007C
:102EC00083FF1AC08091E800877F8093E80080919B
:102ED000EB0080628093EB000FC082E190E0E9EFAD
:102EE000F4E05DCF89E090E0E0EDF4E058CF80E4DD
:102EF00090E0EEE7F4E053CFAA960FB6F894DEBF69
:102F00000FBECDBFDF91CF911F9108951F920F92F9
:102F10000FB60F9211242F933F934F935F936F93AC
:102F20007F938F939F93AF93BF93CF93DF93EF9351
:102F3000FF93C091E900CF708091EC00D82FD17041
:102F400080FDD0E81092E9008091F000877F8093A7
:102F5000F00078940E94B1141092E9008091F00082
:102F600088608093F000CD2BCF70C093E900FF9173
:102F7000EF91DF91CF91BF91AF919F918F917F9111
:102F80006F915F914F913F912F910F900FBE0F90D6
:102F90001F901895E8EDF0E080818E7F808310927D
:102FA000E2001092DA001092E100A0EEB0E08C9105
:102FB00081608C9380818F77808319BCA7EDB0E00E
:102FC0008C918E7F8C9380818F7E80831092F5010F
:102FD0000895CF92DF92EF92FF920F931F93CF93BA
:102FE000DF93C8EDD0E088818F7E8883E7EDF0E045
:102FF00080818160808384E082BF81E08093F501DD
:1030000088818E7F888302EE10E0F8011082109292
:10301000DA0081EEC82ED12CF601108288818F77DC
:10302000888388818068888388818F7D888319BCA4
:10303000109222021092230210922102109220027A
:1030400090EEE92EF12CF70180818B7F80838881BF
:103050008160888342E060E080E00E94FB19F60115
:1030600080818E7F8083F801808181608083808170
:1030700088608083F70180818E7F80838881806172
:103080008883DF91CF911F910F91FF90EF90DF9098
:10309000CF9008951F920F920FB60F9211242F9385
:1030A0003F934F935F936F937F938F939F93AF93D0
:1030B000BF93EF93FF938091E10082FF09C080915D
:1030C000E20082FF05C08091E1008B7F8093E100E8
:1030D0008091DA0080FF2AC08091D80080FF26C04E
:1030E0008091DA008E7F8093DA008091D90080FF92
:1030F00018C080E189BD82E189BD09B400FEFDCF21
:1031000081E0809322028091F50181110FC00E941D
:10311000CA170E94E9178091E20084608093E20060
:1031200005C019BC109222021092F5018091E100B5
:1031300080FF17C08091E20080FF13C08091E20001
:103140008E7F8093E2008091E20080618093E200B4
:103150008091D80080628093D80019BC85E080936C
:1031600022028091E10084FF45C08091E20084FF4B
:1031700041C080E189BD82E189BD09B400FEFDCF77
:103180008091D8008F7D8093D8008091E1008F7E60
:103190008093E1008091E2008F7E8093E200809135
:1031A000E20081608093E20080912302882311F085
:1031B00084E007C08091E30087FD02C081E001C088
:1031C00083E0809322021092FD010E942B1F0E9437
:1031D000BB231092FC018091FB01882349F0809170
:1031E000F60181608093F60160E086950E945F0F92
:1031F0000E944E248091E10083FF27C08091E2006D
:1032000083FF23C08091E100877F8093E10082E00B
:1032100080932202109223028091E1008E7F80939E
:10322000E1008091E2008E7F8093E2008091E200D5
:1032300080618093E20042E060E080E00E94FB1940
:103240008091F00088608093F000FF91EF91BF9132
:10325000AF919F918F917F916F915F914F913F912E
:103260002F910F900FBE0F901F901895CF93DF9363
:1032700000D01F92CDB7DEB79C0190912C02911126
:1032800005C080912202843049F504C0923011F0CB
:10329000943021F584E089833B832A8382E0809304
:1032A000E9008FEF9091E800815095FD06C095ED03
:1032B0009A95F1F700008111F5CF8091E80085FF24
:1032C0000DC040E050E063E070E0CE0101960E9446
:1032D0007A148091E8008E778093E8000F900F9029
:1032E0000F90DF91CF910895CF93DF9300D01F927D
:1032F000CDB7DEB720912202243031F523E02983B7
:10330000805891099B838A8382E08093E9008FEF44
:103310009091E800815095FD06C095ED9A95F1F7E2
:1033200000008111F5CF8091E80085FF0DC040E0DD
:1033300050E063E070E0CE0101960E947A14809123
:10334000E8008E778093E8000F900F900F90DF9148
:10335000CF9108952091E4003091E50095E64091E9
:10336000EC00842F817040FF22C08091E80080FD36
:103370001CC080912202882391F0853091F08091C9
:10338000EB0085FD10C04091E4005091E50042172C
:10339000530729F39A01915011F784E0089582E0D0
:1033A000089583E0089581E0089580E008954091B4
:1033B000E80042FFDECF08958091240287FF11C00C
:1033C0008091E80082FD05C0809122028111F8CF32
:1033D00011C08091E8008B770BC080912202882376
:1033E00049F08091E80080FFF8CF8091E8008E7767
:1033F0008093E8000895982F973058F59093E9004E
:10340000981739F07091EC002091ED005091F00088
:1034100003C0242F762F50E021FF19C03091EB001C
:103420003E7F3093EB003091ED003D7F3093ED0017
:103430003091EB0031603093EB007093EC002093FF
:10344000ED005093F0002091EE0027FF07C09F5F32
:10345000D3CF8F708093E90081E0089580E00895D4
:1034600020912A0230912B022617370748F0611568
:10347000710539F42091E8002E772093E80001C00F
:10348000B90140E061157105A9F1209122022223C2
:1034900009F443C0253009F442C02091E80023FD1F
:1034A00040C02091E80022FD32C02091E80020FFBA
:1034B000E9CF4091F3002091F20030E0342BFC0181
:1034C000CF016115710559F02830310540F4819123
:1034D0008093F100615071092F5F3F4FF1CF41E0C0
:1034E0002830310509F040E02091E8002E77209344
:1034F000E800C8CF4111C9CF0AC0809122028823B9
:1035000061F0853061F08091E80083FD0AC0809110
:10351000E80082FFF2CF80E0089582E0089583E022
:10352000089581E00895CF93DF93CDB7DEB72C9750
:103530000FB6F894DEBF0FBECDBF84B7877F84BFC0
:103540000FB6F894A8958091600088618093600020
:10355000109260000FBE80E88093610010926100BD
:1035600085B7806885BF85B7806885BF0E94CA1708
:103570000E94E9178091E20084608093E2007894D1
:10358000809122028823A1F01091E9001F70909190
:10359000EC00892F817090FD80E8182B1092E900D3
:1035A0008091E80083FD0E94B1141F701093E90020
:1035B00082E084BD93E095BD9AEF97BD80936E0045
:1035C0000E94A61290E090930801809307010E9448
:1035D0008D130E949C13A7E3B2E0EBE4F2E02EE02F
:1035E000D22EDE0E11921D92DE12FCCF8EE090E004
:1035F0000E94272980932D0290932E02FC010E96A3
:103600002BEF2193E817F907E1F70E94AD2581110F
:1036100002C00E94B8258CE090E00E94B12890E0A2
:10362000A0E0B0E080932F0290933002A09331028B
:10363000B093320289EA8093800089E08093810010
:1036400024982C983F988AB18F7C8AB96E98479AB3
:103650008BB180638BB9769A8FE090E00E94B92895
:103660006093330270933402809335029093360254
:1036700067702FEF629FB00111247595679575955E
:1036800067957727709389006093880070938B000B
:1036900060938A0070938D0060938C000E941D13CC
:1036A0000E94AD25811102C00E94B82582E090E001
:1036B0000E94B12880935A020E949C259093460252
:1036C0008093450283E090E00E94B128682F70E06B
:1036D00080E090E00E948C2780914702811138C0E1
:1036E00080915A02816080935A020E94AD25811117
:1036F00004C00E94B8250E94F90D88E090E00E9465
:10370000B9286093F6017093F7018093F8019093C4
:10371000F9016E7F71F40E94F90D88E090E00E943B
:10372000B9286093F6017093F7018093F8019093A4
:10373000F9010E94CA0D109270028091F60180FF7B
:1037400004C060E086950E945F0F81E0809347028D
:1037500089E091E0909349028093480285E4E82E45
:1037600085E0F82E80912202853009F065C08091B5
:103770002202843009F441C010924A0220E488E118
:1037800090E00FB6F894A895809360000FBE209348
:103790006000109270028091FC01811117C081E0DD
:1037A0008093FC018091F601982F91709093FB011A
:1037B0008E7F8093F6018FEF90E7E2E0815090409A
:1037C000E040E1F700C000000E942C0D83B7817F2C
:1037D000846083BF83B7816083BF7894889583B703
:1037E0008E7F83BF0FB6F894A895809160008861A2
:1037F00080936000109260000FBE809121028823A8
:1038000009F4B0CF0E94A61290E090930801809333
:1038100007010E948D130E949C13EBE4F2E01192C9
:10382000DE12FDCF0E94A313EBE4F2E0819181113F
:10383000FDC0DE12FBCF96CF0E94A313EBE5F2E0B2
:10384000ABE4B2E000E010E0302F2D91419142272F
:10385000B9F180E090E050E0682F5A01082E02C0D4
:10386000B594A7940A94E2F7A0FE26C089833A8310
:1038700081E090E05C0102C0AA0CBB1C6A95E2F7F3
:10388000822F90E08A219B2121E0892B09F420E0FE
:103890002B830E9404258160782F9D838C8349812E
:1038A0005A816B818D810E94B922F801E55AFD4F42
:1038B0008081A826A0821AC001968630910561F603
:1038C0000F5F1F4F0E30110509F0BECF8FEF8E83B3
:1038D0008F8318860E9404258160782F9A878987B4
:1038E0004E815F8168858A850E94B92210915902B4
:1038F0000E94BB23181721F00E94BB23809359021A
:1039000080917002882309F42DCF80916F02E0919D
:10391000F601E695E81BE0936B02823049F4F0E093
:10392000ED5AFA4FE4910E2F10E025EA32E248C03A
:10393000863049F4F0E0E05BFA4FE4910E2F10E09E
:1039400025E932E23DC0893051F4E695F0E0E35BD1
:10395000FA4FE4910E2F10E029E232E231C08F30AD
:1039600051F4E695F0E0E65BFA4FE4910E2F10E09B
:1039700029EB31E225C0853149F4F0E0E95BFA4FEB
:10398000E4910E2F10E02DE531E21AC0883179F074
:10399000833231F4F7010591149123E532E210C02E
:1039A000843251F404EF11E020EF30E209C008EE58
:1039B00013E028E231E204C000ED17E023ED30E22D
:1039C00080916C028823A9F010926C022B873C87AF
:1039D0000E940425A80140955095840F951F90934F
:1039E0006A028093690210926E0210926D023C8509
:1039F0002B858091690290916A022B873C870E94F7
:103A0000DA242B853C858017910708F4ABCEE09132
:103A10006902F0916A020E0F1F1F10936A02009351
:103A2000690289E692E0F90109959CCE80E189BDA1
:103A300082E189BD09B400FEFDCF8091D8008F7D61
:103A40008093D8008091E00082608093E0008091B4
:103A5000E00081FDFCCF86CE0E94B926292F2F7071
:103A600092959F70E92FF0E03297EE30F105B8F4AF
:103A7000E658FF4F0C942129803F99F018F4883EB6
:103A800070F40FC0843F59F40CC0883E50F0813F61
:103A900031F407C0822F869586958695089580E03B
:103AA000089581E00895BF92CF92DF92EF92FF9246
:103AB0000F931F93CF93DF93CDB7DEB761970FB608
:103AC000F894DEBF0FBECDBF8C0185E0F801DE01AA
:103AD0001D9601900D928A95E1F7D8013C911196BF
:103AE0002C9111971296EC9012971396CD90DC9032
:103AF00014975091E6026091E7028091E90290915B
:103B0000EA02009709F44FC16F3F19F45F3F09F4CF
:103B10004AC1B090E802BB2009F4ECC04091EB022E
:103B2000C816D90628F0F601E81BF90BCF0104C02E
:103B3000809590958C0D9D1DFF24F394883C9105F4
:103B400048F0F12C407F09F09FC086EE92E00E9481
:103B50004B0321C1842F807F09F044C0621312C03F
:103B6000531310C0E1100EC04F7040614093EB0240
:103B700086EE92E00E944B038091EB02D8011596ED
:103B80008C932EC0CD2819F12F3F11F43F3FF9F04F
:103B9000FE2CE1101CC080911D034091EC0256E008
:103BA000841709F458C090E0589FF001599FF00D18
:103BB0001124E351FD4F6181261306C06081361345
:103BC00003C06281611103C001968770E9CFFE2CAA
:103BD000EE2009F421C18091EB0281608093EB0219
:103BE000F12C1AC162130AC0531308C0E11006C0B9
:103BF0008091EB02D80115968C93B0C03D872E873B
:103C00008D859E850E942C1D8823D1F1EE20C1F167
:103C10002091EB02822F82958F7090E0029774F0D2
:103C20008091E6029091E70298878F831986DB8660
:103C3000CA862C87CE0107960E944B0386E0F801C6
:103C4000A6EEB2E001900D928A95E1F70E94A027BE
:103C5000FF24F394E1C03D872E878D859E850E94C9
:103C6000B926292F22952F7030E0223031050CF033
:103C7000C7C09F7009F0C1C0805E883008F4CCC016
:103C8000C8010E944B03E4CF621314C0531312C047
:103C9000E11010C08091EB02F8018583C8010E94F9
:103CA0004B0386E0E6EEF2E0DF011D928A95E9F72C
:103CB000FB2CB2C03D872E878D859E850E942C1DD2
:103CC0008823F1F2EE20E1F22091EB02822F82951F
:103CD0008F7090E002970CF4B1CF8091E602909142
:103CE000E7029A8389831B82DD82CC822E83CE01F8
:103CF0000196A2CFC816D90638F0C81AD90AB8EC6E
:103D0000CB16D10450F007C0809590958C0D9D1D69
:103D1000883C910510F0F12C3EC0FE2CEE2009F4F9
:103D2000AFCF621327C0531325C02091EB0220FDB3
:103D300018C0822F82958F70482F50E04115510591
:103D400081F0F80125834F30510541F08F5F982FA6
:103D50009295907F822F8F70892B8583C8010E9456
:103D60004B0386E0F801A6EEB2E001900D928A9531
:103D7000E1F752C03D872E878D859E850E942C1DC0
:103D800081115CCF8091EB0281608093EB02C801CE
:103D90000E944B0341C0E6EEF2E086E0DF011D9297
:103DA0008A95E9F739C0EE2009F46ACF3D872E875E
:103DB0008D859E850E942C1DF82E882309F460CFE6
:103DC00086E0F801A6EEB2E001900D928A95E1F747
:103DD0008091E6029091E7020E94B92692959F7029
:103DE000963041F48091720291E0892780937202AB
:103DF000909371020E94A0270FC081113DCF0CC08B
:103E0000243031050CF03CCF9F7009F435CFF80118
:103E10009581907F09F030CF8F2D61960FB6F89481
:103E2000DEBF0FBECDBFDF91CF911F910F91FF90ED
:103E3000EF90DF90CF90BF90089510925B031092A7
:103E40005A030E94322680E090E00E94A52380E081
:103E500090E00C948F2380910601882331F08091AB
:103E6000450287FF02C08EE101C086E0E8ECF2E087
:103E7000DF011D928A95E9F70C941D1F882341F0FC
:103E800080959091FD0189238093FD010C94322649
:103E90000895882339F09091FD01892B8093FD01CD
:103EA0000C9432260895882309F458C0682F82386C
:103EB00069F40E94BB2381FF51C069E386EC92E064
:103EC0000E9464250E94322669E30EC0833891F473
:103ED0000E94BB2380FF42C063E586EC92E00E9413
:103EE00064250E94322663E586EC92E00E94392523
:103EF0000C943226843869F40E94BB2382FF2EC0C2
:103F000067E486EC92E00E9464250E94322667E412
:103F1000EBCF8CEF860F813A38F380E2860F883042
:103F200070F4677081E090E001C0880F6A95EAF74D
:103F300080959091FD0189238093FD01D9CF8BE578
:103F4000860F833020F480E090E00C94A523685A1B
:103F5000673120F480E090E00C948F23089588234B
:103F600009F40DC1682F8238B1F40E94BB2381FD92
:103F700006C169E386EC92E00E9464250E94322625
:103F80002FEF81EE94E0215080409040E1F700C097
:103F9000000069E317C08338D9F40E94BB2380FD79
:103FA000EEC063E586EC92E00E9464250E94322612
:103FB0002FEF81EE94E0215080409040E1F700C067
:103FC000000063E586EC92E00E9439250C943226CD
:103FD0008438B1F40E94BB2382FDD1C067E486EC33
:103FE00092E00E9464250E9432262FEF81EE94E039
:103FF000215080409040E1F700C0000067E4E2CF2C
:104000008CEF860F813A28F486EC92E00E946425BA
:10401000DDCF80E2860F883068F4677081E090E041
:1040200001C0880F6A95EAF79091FD01892B809372
:10403000FD01CCCF8BE5860F833070F4653A29F013
:10404000663A31F083E890E005C081E890E002C074
:1040500082E890E00C94A52388E5860F873108F06C
:104060008EC0683A09F445C0693A09F445C06A3A15
:1040700009F445C06B3A09F445C06C3A09F445C0EF
:104080006B3B09F445C06C3B09F445C06D3A09F43B
:1040900045C0603B09F445C06E3A09F445C06F3A2B
:1040A00009F445C0613B09F445C0623B09F445C0D1
:1040B000633B09F445C0643B09F445C0653B09F422
:1040C00045C0663B09F445C0673B09F445C0683B01
:1040D00009F445C0693B09F445C06D3B09F445C08E
:1040E0006E3B09F445C06A3B09F445C080E090E0AE
:1040F00044C082EE90E041C089EE90E03EC08AEE7E
:1041000090E03BC085EB90E038C086EB90E035C096
:1041100083EB90E032C084EB90E02FC087EB90E01F
:104120002CC08CEC90E029C08DEC90E026C083E898
:1041300091E023C08AE891E020C082E991E01DC0AF
:1041400084E991E01AC081E292E017C083E292E034
:1041500014C084E292E011C085E292E00EC086E2D3
:1041600092E00BC087E292E008C08FE690E005C0C5
:1041700080E790E002C08AE292E00C948F230895D9
:10418000CF93C82F0E94AF1FC93349F42FEF87EE9A
:1041900093E0215080409040E1F700C000008C2F58
:1041A000CF910C94531F0895882319F05198599A70
:1041B00002C0519A59985098589A95E09A95F1F7FB
:1041C0000000509A589895E09A95F1F700008823DE
:1041D00011F0519A599885E08A95F1F700000895F9
:1041E000EF92FF920F931F93CF93DF937C01C6E76B
:1041F000D2E000E010E0F7018481073011051CF4E3
:10420000882339F002C0811104C09E014091F90158
:1042100002C09E0140E06091F8018091F7010E9488
:10422000080E0F5F1F4F24960F30110521F70E94D3
:104230002C0DF701248130E02F5F3F4F2170332791
:104240002483DF91CF911F910F91FF90EF900895FC
:10425000EF92FF920F931F93CF93DF93EC012C818A
:104260003D812F5F3F4F217033273D832C8386E7AD
:10427000E82E82E0F82E10E005E5812F86954C812E
:104280005D81480F511D842F817097014091F90184
:104290006091F801809F802D11240E94080E1F5FFD
:1042A00084E0E80EF11C1F3041F7DF91CF911F91A0
:1042B0000F91FF90EF900C942C0D0F931F93CF93C1
:1042C000DF9380E090E0FC01EA58FD4F11821082FC
:1042D000128204968C339105B1F7C0E0D0E00FE074
:1042E00010E0CE01B8010E940D29FC0180917402FA
:1042F000082E000C990BEE0FFF1FEE0FFF1FC817C3
:10430000D907A4F080911F01082E000C990B8C177F
:104310009D0764F09F012A583D4F4091F90160913B
:10432000F8018091F7010E94080E05C0EA58FD4F80
:104330001182108212822196CF30D10591F60E940F
:104340002C0D80911E0190917402980F909374022D
:1043500020911F01280F20931F01121614F49E3084
:104360001CF0819580931E01DF91CF911F910F91D9
:104370000895AF92BF92CF92DF92EF92FF920F9388
:104380001F93CF93DF93FC01828180FF03C0BB2486
:10439000BA9402C0BB24B39426E7E22E22E0F22EA8
:1043A00008E712E0C0E0D0E0F80131971082F70191
:1043B0001082F801108294E0C92ED12CA12C80919A
:1043C00073028A0D87FD815F082E000C990BC817B8
:1043D000D90791F48091F9018C9DA0018D9D500D1C
:1043E0001124559547955595479597016091F8018A
:1043F0008091F7010E94080EAB0CF1E0CF1AD108B2
:10440000F1F6219684E0E80EF11C0C5F1F4FCF30CF
:10441000D10551F60E942C0D8091730291E0B912E2
:1044200006C0811102C08EE007C0815005C090E037
:104430000196BE010E940D2980937302DF91CF91F6
:104440001F910F91FF90EF90DF90CF90BF90AF90B2
:104450000895EF92FF921F93CF93DF93EC0186E7CD
:10446000E82E82E0F82E10E08C8197014091F9014E
:104470006091F801810F0E94080E1F5E84E0E80E33
:10448000F11C1F3F89F70E942C0D8A819C8180FFBF
:1044900002C09F5F01C091509C83DF91CF911F911B
:1044A000FF90EF9008950F931F93CF93DF9300D069
:1044B00000D0CDB7DEB78C018091750281110AC0A2
:1044C0009E012F5F3F4F4FEF6FEF0E94080E8A81D2
:1044D00080937502F8018481813051F028F0823098
:1044E00061F4409175020AC08091750240E007C0F6
:1044F0006091750240E080E003C040E080E060E051
:104500000E94AE0DF801248130E0C901019663E0FC
:1045100070E00E940D2984830F900F900F900F90F0
:10452000DF91CF911F910F910895CF93DF93EC010D
:10453000E6EFF1E0438162818C810E94A80E8C81BC
:104540008F5F8C83DF91CF910895CF93DF93EC0140
:10455000EC81F0E0E95AFA4F4491E6EFF1E0628134
:1045600081810E94A80E8C818F5F8C83DF91CF9117
:104570000895EF92FF920F931F93CF93DF93CDB7E0
:10458000DEB767970FB6F894DEBF0FBECDBF4B8B7B
:104590005C8B6D8B7E8B8F8B0E891F8901151105AE
:1045A000C1F15F3F11F44F3FA1F1E42EF12CA1E0E6
:1045B000B0E0042E01C0AA0F0A94EAF7852F90E01C
:1045C000662319F02091720206C09C0128543D4FC9
:1045D000F90120812A232223A9F046E0489F900177
:1045E000499F300D1124F701E20FF31FEE0FFF1F5B
:1045F000EB5BFE4F40815181FC01E854FD4F9081FF
:10460000A92B06C0FC01E854FD4FA0958081A8238A
:10461000A08386E0FE013D96DF01982F1D929A95BA
:10462000E9F74D875E876F87198B088BDE01179638
:1046300001900D928A95E1F7CE0107960E94531DD5
:10464000811137C086E0FE013796DE011196019098
:104650000D928A95E1F7FF81E8856A857B85611572
:10466000710539F1EF3F11F4FF3F19F12091EC0290
:1046700030E0C90101968770992740911D0350E0F1
:104680008417950779F1F983EA837D836C8396E03B
:10469000929FD001939FB00D1124A351BD4FFE01F5
:1046A000319601900D929A95E1F78093EC020E9469
:1046B000962716E080911D039091EC02891711F165
:1046C000189FC001112483519D4F0E94531D8823C0
:1046D000C9F080911D0390E001968770992780931F
:1046E0001D03E8CF1092FD010E942B1F1092EC02D7
:1046F00010921D03E6EEF2E086E0DF011D928A953E
:10470000E9F7D7CF67960FB6F894DEBF0FBECDBFDF
:10471000DF91CF911F910F91FF90EF90089520911D
:10472000B6023091B7028217930771F09093B702E7
:104730008093B602E0914802F0914902309721F04F
:104740000084F185E02D099408952091B402309100
:10475000B5028217930771F09093B5028093B4026B
:10476000E0914802F0914902309721F00680F781EC
:10477000E02D09940895E0914802F09149023097A4
:1047800021F00190F081E02D099480E00895CF930D
:10479000DF93D82FC8E08D2F80780E94D420DD0FC2
:1047A000C150C9F780E00E94D42085E08A95F1F7D6
:1047B000000085E08A95F1F7000080E0DF91CF915D
:1047C00008950F931F93CF93DF93C62FD42F022FFB
:1047D000FC0182818823C9F06093EF010E940425C7
:1047E0009093B3028093B20280E28C0F883008F07D
:1047F00050C0C77081E001C0880FCA95EAF7DF9109
:10480000CF911F910F910C94491F1091EF01161336
:1048100030C08091B2029091B3020E94DA24883CA9
:10482000910538F5C0E2CD0F1D17B9F080E2810F78
:10483000883040F4177081E001C0880F1A95EAF7BC
:104840000E943E1FC83048F481E09D2F977001C040
:10485000880F9A95EAF70E94491F802F0E94C02076
:10486000C830B8F4D77081E001C0880FDA95EAF754
:104870000AC080E28C0F883060F4C77081E001C00C
:10488000880FCA95EAF7DF91CF911F910F910C9491
:104890003E1FDF91CF911F910F9108956091F60116
:1048A000669570E04BE050E083E191E00E94542A6D
:1048B000892B19F481E0809370020E940425909363
:1048C0006A0280936902089508958091FF01089516
:1048D000CF93DF9320912C02211103C0209122025B
:1048E00002C0223011F02430E1F52091060122238C
:1048F00039F02091450227FF03C060E222E002C0A8
:1049000068E021E02093E9002FEF3091E80021508A
:1049100035FD06C035ED3A95F1F700002111F5CFD0
:104920002091E80025FF1DC0EC0180910601811156
:1049300005C040E050E068E070E003C070E040E097
:1049400050E0CE010E947A148091E8008E77809327
:10495000E80080E2FE01A0E0B2E001900D928A95AD
:10496000E1F7DF91CF91089578941F920F920FB6DF
:104970000F9211248F939F93AF93BF938091610304
:1049800090916203A0916303B09164030196A11D0D
:10499000B11D8093610390936203A0936303B0936E
:1049A0006403BF91AF919F918F910F900FBE0F90B5
:1049B0001F901895CF92DF92EF92FF920F931F9363
:1049C0002FB7F894409161035091620360916303A3
:1049D000709164032FBF6A017B01EE24FF248C01D8
:1049E00020E030E0C016D106E206F30610F4415094
:1049F00051099A01281B390BC9011F910F91FF9092
:104A0000EF90DF90CF9008952FB7F89480916103D5
:104A100090916203A0916303B09164032FBF089546
:104A20001F920F920FB60F9211248F939F93AF9303
:104A3000BF9380914A02811113C0809161039091CC
:104A40006203A0916303B09164034196A11DB11D5F
:104A50008093610390936203A0936303B093640314
:104A6000BF91AF919F918F910F900FBE0F901F90AC
:104A7000189520910601222321F02091450227FD5F
:104A800004C0FC013296089619C0262F269526955B
:104A900026952E31C0F4FC01E20FF11D677081E014
:104AA00090E001C0880F6A95EAF78095928189238A
:104AB000828308953196E817F90729F0208126139B
:104AC000F9CF1082F7CF089520910601222321F01B
:104AD0002091450227FD05C0FC0132962FEF30E002
:104AE00019C0262F2695269526952E3120F5FC01F6
:104AF000E20FF11D677081E090E001C0880F6A95B8
:104B0000EAF79281892B828308952F3F39F03F5F26
:104B1000363041F041914613F8CF0DC04111F7CF27
:104B2000232FF5CF2F3F39F0FC01E20FF11D27FDB8
:104B3000FA95628308950895CF9384E090E00E94EF
:104B4000B128C82F81E290E00E94B1282C2F30E0DC
:104B5000A901582BCA01CF91089580E090E00E94EE
:104B6000BF2821E08F3E9E4F09F020E0822F08955C
:104B70006FEE7EEF80E090E00E94E32860E082E04C
:104B800090E00E94C52860E083E090E00E94C52884
:104B900010925D0310925E0310925F031092600307
:104BA00060E084E090E00E94C52860E081E290E04F
:104BB0000E94C52860E085E090E00E94C52860E082
:104BC00086E090E00E94C5286FEF87E090E00E94A9
:104BD000C52840E050E0BA0188E090E00E94D72864
:104BE00060E08DE090E00E94C52840E050E0BA010E
:104BF00088E190E00E94D72860E087E190E00E9481
:104C0000C52840E050E0BA018CE190E00E94D7282E
:104C100060E080E290E00E94C5281092330210927A
:104C20003402109235021092360284E08061809343
:104C300033024091330250913402609135027091F9
:104C400036028FE090E00E94D72840E050E0BA01A1
:104C500083E190E00C94D72880915C03811110923D
:104C60005C03089590915B038091FD01892B209155
:104C70005A03982F922B9093C60280915C0388234D
:104C8000D9F0892B8093C60280910601882331F0E8
:104C90008091450287FF02C08EE101C086E0E8EC0A
:104CA000F2E090E0815028F021912223D9F39F5F18
:104CB000F9CF91110E942C26E0914802F09149020F
:104CC0003097A9F080910601882359F08091450220
:104CD00087FF07C08091C6028093C70285E080935A
:104CE000C6020280F381E02D86EC92E009940895DB
:104CF000BF92CF92DF92EF92FF920F931F93CF93C9
:104D0000DF938C01C0905D03D0905E03E0905F0361
:104D1000F09060038091550390915603A091570342
:104D2000B0915803C82AD92AEA2AFB2ACFE1D0E059
:104D3000D701C6010C2E04C0B695A7959795879507
:104D40000A94D2F780FF07C0BC2EB8018C2F0E94B6
:104D5000B60F019719F4219758F7B12C8B2DDF91DD
:104D6000CF911F910F91FF90EF90DF90CF90BF9068
:104D70000895CF93DF93EC010E947826BE010E9434
:104D8000B60FDF91CF910895292F220F920F990F1F
:104D9000890F682F669566956695982F977085E0C0
:104DA000689FB001112440E050E080E0FA01E60F76
:104DB000F71FE25EFC4F208130E0092E02C03695DD
:104DC00027950A94E2F721703327042E01C0220FA1
:104DD0000A94EAF7822B4F5F5F4F4530510531F758
:104DE0000895292F220F920F990F890FA82FA695AA
:104DF000A695A695877051E001C0550F8A95EAF7F0
:104E000085E0A89FD001112420E030E070E0F90196
:104E1000EA0FFB1FE25EFC4F4081CB01022E02C075
:104E2000969587950A94E2F7817099278195842752
:104E30008523842780832F5F3F4F2530310539F745
:104E400008950E942F126093550370935603809328
:104E50005703909358030C941D1F0F931F9341E029
:104E600050E060E070E004C0440F551F661F771FDC
:104E70008A95D2F74095509560957095809155032D
:104E800090915603A0915703B09158038A019B015A
:104E9000082319232A233B23C901B8011F910F912D
:104EA0000C942127209159038095822380935903E4
:104EB000982F977079F430E0482F082E000C550B8E
:104EC0002417350739F08595859585950E942D27FE
:104ED0001092590308950F931F9341E050E060E052
:104EE00070E004C0440F551F661F771F8A95D2F7E4
:104EF0008091550390915603A0915703B0915803A8
:104F00008A019B01082B192B2A2B3B2BC901B801C5
:104F10001F910F910C94212760935D0370935E03A2
:104F200080935F03909360030C941D1F80911D0379
:104F30009091EC02891719F08F5F8770FBCF08956D
:104F40008091EB0282958F7009F054C08091E80245
:104F5000882309F44FC080911D03A091EC02609159
:104F6000E6027091E7024091E9025091EA02B6E050
:104F70008A1709F43FC090E041155105C1F17F3F08
:104F800011F46F3FA1F1B89FF001B99FF00D11240A
:104F9000E351FD4F218172132AC02081621327C083
:104FA0002281211124C0238134812417350710F474
:104FB00021503109241B350B283C3105C0F42091C8
:104FC000EB022F7020612093EB0226E0289FF00176
:104FD000299FF00D1124EE50FD4F80818F7080616C
:104FE000808386EE92E00E944B030C9496270196F4
:104FF0008770BECF08951092B9008CE08093B800FE
:105000000895EF92FF920F931F93CF93DF93182F82
:10501000EB011092BC0084EA8093BC000E9404253E
:105020007C019091BC0097FD0EC0CF3F8FEFD80759
:10503000C1F30E9404258E199F098C179D0788F3E0
:105040008EEF9FEF2EC09091B900987F983041F07D
:105050009091B900987F903119F08FEF9FEF21C0A8
:105060001093BB0084E88093BC000E9404258C014F
:105070009091BC0097FD0CC0CF3F8FEFD807C1F3D4
:105080000E940425801B910B8C179D0788F3D8CFB5
:105090008091B900887F883111F08034F1F680E08A
:1050A00090E0DF91CF911F910F91FF90EF900895C5
:1050B0000F931F93CF93DF93EB018093BB0084E8A2
:1050C0008093BC000E9404258C019091BC0097FD48
:1050D0000EC0CF3F8FEFD807C1F30E940425801B7D
:1050E000910B8C179D0788F38EEF9FEF0CC02091DA
:1050F000B900287F81E090E0283211F480E090E050
:10510000919581959109DF91CF911F910F9108950C
:105110000F931F93CF93DF93EC0184E88093BC003F
:105120000E9404258C019091BC0097FD0EC0CF3FDA
:105130008FEFD807C1F30E940425801B910B8C17B9
:105140009D0788F38EEF9FEF03C08091BB0090E036
:10515000DF91CF911F910F91089584E98093BC0056
:105160000895F999FECF92BD81BDF89A992780B52F
:105170000895A6E1B0E044E050E00C94EB28A8E1EB
:10518000B0E042E050E00C94EB28262FF999FECFD6
:1051900092BD81BDF89A019700B4021639F01FBA8A
:1051A00020BD0FB6F894FA9AF99A0FBE08950396A7
:1051B000272F0E94C6280E94C528252F0E94C62896
:1051C000242F0C94C6280196272F0E94C6280C94E1
:1051D000C528DC01CB01FC01F999FECF06C0F2BD68
:1051E000E1BDF89A319600B40D9241505040B8F7A5
:1051F0000895AA1BBB1B51E107C0AA1FBB1FA6171E
:10520000B70710F0A61BB70B881F991F5A95A9F76F
:1052100080959095BC01CD01089597FB072E16F45B
:10522000009407D077FD09D00E94F92807FC05D02B
:105230003EF4909581959F4F0895709561957F4FAD
:105240000895EE0FFF1F0590F491E02D0994CF9380
:10525000DF938230910510F482E090E0E0916703E3
:10526000F091680320E030E0C0E0D0E0309711F129
:105270004081518148175907C0F04817590761F418
:1052800082819381209719F09B838A832BC090930E
:1052900068038093670326C02115310519F0421772
:1052A000530718F49A01BE01DF01EF010280F38178
:1052B000E02DDCCF2115310509F1281B390B2430F5
:1052C000310590F412968D919C911397611571059B
:1052D00021F0FB019383828304C090936803809341
:1052E0006703FD01329644C0FD01E20FF31F819375
:1052F0009193225031092D933C933AC0209165033C
:1053000030916603232B41F4209102013091030177
:1053100030936603209365032091000130910101D1
:105320002115310541F42DB73EB74091040150914C
:105330000501241B350BE0916503F0916603E2172C
:10534000F307A0F42E1B3F0B2817390778F0AC01A8
:105350004E5F5F4F2417350748F04E0F5F1F509385
:105360006603409365038193919302C0E0E0F0E00F
:10537000CF01DF91CF9108950F931F93CF93DF93C8
:10538000009709F48CC0FC013297138212820091BD
:105390006703109168030115110581F420813181A3
:1053A000820F931F209165033091660328173907F8
:1053B00079F5F0936603E093650371C0D80140E08E
:1053C00050E0AE17BF0750F412962D913C91139701
:1053D000AD012115310509F1D901F3CF9D01DA01A4
:1053E0003383228360817181860F971F8217930711
:1053F00069F4EC0128813981260F371F2E5F3F4F5A
:10540000318320838A819B8193838283452B29F476
:10541000F0936803E093670342C01396FC93EE9306
:105420001297ED01499159919E01240F351FE21702
:10543000F30771F480819181840F951F0296119674
:105440009C938E938281938113969C938E93129753
:10545000E0E0F0E0D80112968D919C9113970097AF
:1054600019F0F8018C01F6CF8D919C9198012E5F77
:105470003F4F820F931F20916503309166032817D9
:10548000390769F4309729F4109268031092670382
:1054900002C0138212821093660300936503DF91AA
:1054A000CF911F910F910895FC014150504030F071
:1054B00001900616D1F73197CF01089588279927D3
:0654C0000895F894FFCFEF
:1054C6000000690320000120006524682464247418
:1054D60019361901191A1B1C1D1E1F202122010233
:1054E6000001020202020606060909090909090F56
:1054F6000F0F0F0F0F151515181919191919191955
:105506001919192324000D010D020D030D040D05B3
:105516000D000C010C020C030C040C050C000B0115
:105526000B020B030B040B050B000A010A020A030C
:105536000A040A050A000901090209030904090502
:105546000900080108020803080408050800070105
:1055560007020703070407050700060106020603FC
:1055660006040605060005010502050305040505F2
:1055760005000401040204030404040504000301F5
:1055860003020303030403050300020102020203EC
:1055960002040205020001010102010301040105E2
:0E55A6000100000100020003000400050000E7
:00000001FF
