:100000000C942C030C9449030C9449030C9449035D
:100010000C9449030C9449030C9449030C94490330
:100020000C9449030C9449030C94A1180C94DD170B
:100030000C9467250C9449030C9449030C944903D0
:100040000C9449030C9449030C9449030C94490300
:100050000C9449030C940B250C9449030C9449030C
:100060000C9449030C9449030C9449030C944903E0
:100070000C9449030C9449030C9449030C944903D0
:100080000C9449030C9449030C9449030C944903C0
:100090000C9449030C9449030C9449030C944903B0
:1000A0000C9449030C9449030C94490368086808AC
:1000B000A608A608EF08FA0AA10AFA0A0F09FB091E
:1000C0000D0A0D0AC10CC40CC70CCA0CCD0CD00C07
:1000D000D30CA012A512AF12A312A812AD12AB122C
:1000E000EE151516B5171516B5175D168016B5174A
:1000F0007E179117931D931DA61DA61D9C1DA61D61
:10010000A61DA61D931D931DA11DA61DA61DA11D07
:1001100001004C00E1000100010000001E0014007D
:1001200004001D610100E3001F00070016001B0012
:1001300001002A00200015000B0010002E002C00EA
:1001400021001A0017000600290001002200050006
:100150000A0019000000010001002F000000260223
:100160000000010001003000000027020000010033
:1001700023000D001C000E000000010024000900F7
:1001800011000F0002510100250018000800360080
:10019000010028002600130012003700E6002B00A3
:1001A000270033000C003861010056003500310093
:1001B0003468E1000153000001000100010001006A
:1001C000010000003A0001000100010001000100EF
:1001D0003B00010001000100010001003C000100A2
:1001E00001000100010001003D00010001000100CB
:1001F000010001003E0001000100010000000100BB
:1002000001000100000001000000010001000100E8
:1002100000000100000001003F00520051000100F9
:10022000000001004000240021001E000100010028
:100230004100250022001F00370001004200260077
:100240002300200027000100430025022E02310078
:100250002E000100440045000100010001000000E3
:100260000100010001000100010000000100010087
:100270000100010001000100010001000100010076
:100280000100010001000100010001000100010066
:100290000100010001000100010001000100010056
:1002A0000100010000000100010001000000010048
:1002B0000000010001000100000001000000010039
:1002C00001004B004E0001000000010001004A0047
:1002D000500001000100010001004D00520001002A
:1002E0000100010001004C0051000100010001006B
:1002F000010001004F0001000100010001000100A8
:1003000001000100010000000000000000000000EA
:1003100000000101010101010101010202020202CA
:100320000202020303030303030304040404040599
:100330000505050506060606060707070708080857
:10034000080909090A0A0A0B0B0B0C0C0C0D0D0D00
:100350000E0E0E0F0F101010111112121313141491
:10036000151516161717181819191A1A1B1C1C1D03
:100370001D1E1F1F20212122232324252526272857
:1003800028292A2B2C2C2D2E2F3031313233343585
:10039000363738393A3B3C3D3E3F40414243444585
:1003A000464748494B4C4D4E4F5052535455575861
:1003B000595A5C5D5E606163646567686A6B6C6E08
:1003C0006F7172747677797A7C7D7F81828486877B
:1003D000898B8D8E9092949597999B9D9FA1A2A4B5
:1003E000A6A8AAACAEB0B2B4B6B9BBBDBFC1C3C5B6
:1003F000C8CACCCED0D3D5D7DADCDEE1E3E6E8EA72
:10040000EDEFF2F4F7F9FCFFFFAA7F554005010973
:1004100080A10185031A81002A83001601002603AA
:1004200000950175108100C0050C0901A10185042A
:100430001A01002A9C02160100269C0295017510E3
:100440008100C005010906A1018505050719E029FC
:10045000E715002501950875018102050719002996
:10046000EF1500250195F075018102050819012994
:1004700005950575019102950175039101C005016E
:100480000906A101050719E029E7150025019508CE
:10049000750181029501750881010507190029FF81
:1004A000150026FF00950675088100050819012929
:1004B00005950575019102950175039101C0090229
:1004C0003B00020100A0FA09040000010301010041
:1004D0000921110100012240000705810308000ADB
:1004E000090401000103000000092111010001229B
:1004F00071000705820320000A12011001000000AC
:1005000008EDFE071301000102030104033000009F
:100510000016034500720067006F0044006F00780A
:1005200000200045005A00000016034500720067D5
:10053000006F0044006F007800200045005A000062
:10054000000403090400047F3F1F64321464321462
:10055000783C1E1E140A052223252628292A2C2D24
:100560002F3032333536383A3B3D3E4042434547E3
:10057000494A4C4E5051535557595A5C5E6062641B
:100580006668696B6D6F71737577797B7D7F818329
:100590008587898A8C8E90929496989A9C9E9FA12A
:1005A000A3A5A7A8AAACAEAFB1B3B4B6B8B9BBBC4B
:1005B000BEBFC1C2C3C5C6C7C9CACBCCCDCED0D1C0
:1005C000D2D2D3D4D5D6D7D7D8D9D9DADADBDBDBB8
:1005D000DCDCDCDCDCDDDDDDDDDCDCDCDCDCDBDB59
:1005E000DBDADAD9D9D8D7D7D6D5D4D3D2D2D1D0AD
:1005F000CECDCCCBCAC9C7C6C5C3C2C1BFBEBCBBAA
:10060000B9B8B6B4B3B1AFAEACAAA8A7A5A3A19F21
:100610009E9C9A98969492908E8C8A8987858381E5
:100620007F7D7B79777573716F6D6B6968666462C6
:10063000605E5C5A5957555351504E4C4A49474594
:100640004342403E3D3B3A3836353332302F2D2C35
:100650002A2928262523220011241FBECFEFDAE005
:10066000DEBFCDBF11E0A0E0B1E0E4E7F5E502C0F8
:1006700005900D92AE3EB107D9F723E0AEEEB1E0A2
:1006800001C01D92AA36B207E1F70E94EA1A0C9443
:10069000B82A0C9400008F929F92AF92BF92CF9293
:1006A000DF92EF92FF920F931F93CF93DF93CDB71B
:1006B000DEB728970FB6F894DEBF0FBECDBFFC01A2
:1006C000F080118183819481892B11F40C940E0C9C
:1006D0001F3F29F40FEFF01611F40C940E0C6F016C
:1006E00085E0DE01119601900D928A95E1F7F60101
:1006F000228189819A81222349F00E94CF26082FE6
:10070000682F89819A810E94482703C00E941B2775
:10071000082F26E0129FF001112434E5039FE00D1D
:10072000F11D1124EF0DF11DEE0FFF1FE05FFE4FD5
:1007300005911491F60182810E3FFCE51F0709F037
:1007400040C0882309F453C09091340281E0890F9E
:100750008770987F853020F4892B8093340202C003
:10076000909334028091340287702FEF829FC001F2
:10077000112495958795959587959927909389004C
:100780008093880090938B0080938A0090938D00D3
:1007900080938C0040913402509135026091360272
:1007A000709137028FE090E00E942E2960915603ED
:1007B0007091570380915803909159030E94411200
:1007C00016C00F3F3CE5130731F001159DE51907F1
:1007D00009F443C00CC0882311F40C940E0C9091C2
:1007E000EE0181E089278093EE010C940E0CF60156
:1007F0008281882381F0033EECE51E0709F458C08E
:1008000008F04BC0013E2CE5120709F03FC01092E2
:1008100030020E94C20F17FFBFC0F6018281811112
:100820004DC00B3CFCE51F0709F40BC108F440C1A7
:10083000033D9CE5190709F482C308F087C30F3C08
:10084000FCE51F0709F486C708F09EC70D3C3CE590
:10085000130709F001C1F6018281882311F40C9479
:100860000E0C81E028960FB6F894DEBF0FBECDBF08
:10087000DF91CF911F910F91FF90EF90DF90CF907C
:10088000BF90AF909F908F900C94AC0F023E3CE5D0
:10089000130709F0C0CF81E00EC0043E8CE51807B5
:1008A00049F0053E9CE5190709F0B5CF84E003C087
:1008B00082E001C083E080933002ABCF8091FE01E3
:1008C0008093EF011092FE0180913002813071F02F
:1008D00048F08230D1F08430F1F486EE0E94172186
:1008E00088E117C082EE0E94062015C084E79CE0D4
:1008F0000E94C61488E10E94062088E10E94AA1F77
:1009000084E69CE00E94C61406C082EE0E94062087
:1009100087E50E9417218FE39CE90197F1F700C05A
:1009200000007801E894F7F85CE0A52EB12CC7012F
:100930000A2C02C0969587950A94E2F7282F2F700B
:1009400041F0822F90E02A3010F44D9604C00697B3
:1009500002C087E290E00E94172194E0A91AB10832
:10096000ECEFAE16EFEFBE0611F78091300281304A
:1009700039F040F0823031F0843051F488E206C022
:100980008CE204C082EE0E94AA1F02C00E941721BE
:100990008091EF018093FE01003FFCE51F07B1F15C
:1009A00080F4083D3CE51307C9F0093D8CE51807C4
:1009B000C9F1073D9CE51907C1F526E241EE61EE5C
:1009C00010C0023FECE51E0749F120F1033F2CE582
:1009D000120759F527E245EE66EE03C027E245EE21
:1009E00065EEC60128960FB6F894DEBF0FBECDBFE8
:1009F000DF91CF911F910F91FF90EF90DF90CF90FB
:100A0000BF90AF909F908F900C94382426E241EED7
:100A100060EEE7CF27E245EE64EEE3CF26E241EE5B
:100A200062EEDFCF28E241E0DBCFF601828188234E
:100A300019F01092F001F5CE0B3CFCE51F0709F010
:100A400074C2F6018281882309F4E8C68091FB0113
:100A5000833090F48F5F0EC00E3C1C4508F087C6B3
:100A6000F6018281882309F4D9C68091FB0188238D
:100A700019F081508093FB016091F7017091F801AA
:100A80008091F9019091FA0128960FB6F894DEBF93
:100A90000FBECDBFDF91CF911F910F91FF90EF90CF
:100AA000DF90CF90BF90AF909F908F900C94D70D18
:100AB000033C3CE51307E9F4F6018281882309F43D
:100AC000ADC68091FE01827279F128960FB6F89436
:100AD000DEBF0FBECDBFDF91CF911F910F91FF9071
:100AE000EF90DF90CF90BF90AF909F908F900C943D
:100AF000AF0F043C8CE5180758F1073C9CE519073B
:100B000009F4B5C508F0BFC5053CFCE51F0709F4AD
:100B1000F3C508F0FFC5F6018281882309F47EC67B
:100B20008091FE01827289F228960FB6F894DEBF9A
:100B30000FBECDBFDF91CF911F910F91FF90EF902E
:100B4000DF90CF90BF90AF909F908F900C94B80F94
:100B500006319CE5190708F089C10230ECE51E0753
:100B600008F429C1F6018281882309F44AC20E944F
:100B70000426811102C00E940F260E94F325909343
:100B80004702809346020F30FCE51F0709F4CDC0F1
:100B900008F042C008303CE5130709F4A8C0F0F49F
:100BA00004309CE5190709F490C068F40230FCE5B4
:100BB0001F0709F486C003301C4509F0D9C0809195
:100BC00046028260D3C006303CE5130709F487C0B3
:100BD00008F089C0809146028860C8C00B309CE54F
:100BE000190709F493C068F40930FCE51F0709F4FC
:100BF00082C00A301C4509F0BBC080914602886063
:100C00007EC00D303CE5130709F484C008F085C0B0
:100C1000809146028D7FAAC0073F9CE5190709F421
:100C200057C050F50231FCE51F0709F486C068F48F
:100C300000313CE5130709F47CC001311C4509F083
:100C400097C0809146028F7B91C004319CE51907C3
:100C500009F483C008F475C005311C4509F088C04B
:100C60008091460282FB222720F991E0922790FB97
:100C700082F990FB83F97AC00A3F2CE5120709F448
:100C800050C058F4083F8CE5180729F1093F1C456E
:100C900009F06EC0809147025CC00C3FECE51E0776
:100CA00009F454C070F10D3F1C4509F061C08091FA
:100CB0004702982F909591708E7F892B90FB81F938
:100CC00049C080914602816051C08091460217C0A0
:100CD0008091470219C08091470282603BC0809199
:100CE0004602806143C08091460280623FC080918D
:100CF000460280643BC080914602806837C08460B1
:100D000035C0809147028260816024C08091460294
:100D10008E7F2CC08091460217C080914602877F4B
:100D200025C0809147028D7F15C0809146028F7E3D
:100D30001DC0809146028F7D19C0809146028F7739
:100D400015C080914602877F8B7F10C0809147023B
:100D50008D7F8E7F809347020BC08091460287FB78
:100D6000222720F991E0922790FB87F98093460291
:100D7000609146021091470284E090E00E941C2995
:100D8000612F81E290E00E941C291092FE012896BA
:100D90000FB6F894DEBF0FBECDBFDF91CF911F918C
:100DA0000F91FF90EF90DF90CF90BF90AF909F900A
:100DB0008F900C94821F0115FCE51F0709F044C0B9
:100DC000F6018281882309F429C51092FE010E9450
:100DD000821FFFEF04E31CE0F15000401040E1F7F8
:100DE00000C00000F89481E08093E00080E28093EE
:100DF000D8001092C9008FE19EE40197F1F700C07E
:100E000000001DBA109268001CBC10BE1FBA1092E0
:100E10007A0010926E0010926F0010927100109282
:100E200072001092C9001092BC0014B817B81AB81A
:100E30001DB810BA1092BC0015B818B81BB81EB86F
:100E400011BA0C94003FEAC401301C4509F0D9C026
:100E5000F6018281882309F4E1C480915B02982F16
:100E6000909590FB80F980935B02D8C406313CE5F5
:100E70001307A9F59091FE01F6018281882381F084
:100E80009A7A81E009F480E08093F101811102C037
:100E900069E201C065E387EC92E00E94BB250BC0CC
:100EA0008091F101811102C069E201C065E387EC24
:100EB00092E00E94902528960FB6F894DEBF0FBEF0
:100EC000CDBFDF91CF911F910F91FF90EF90DF90F9
:100ED000CF90BF90AF909F908F900C948926023C4A
:100EE0001C4509F08EC0F6018281882309F496C45E
:100EF0008091F70180FF14C028960FB6F894DEBFEA
:100F00000FBECDBFDF91CF911F910F91FF90EF905A
:100F1000DF90CF90BF90AF909F908F900C94F30D87
:100F200081608093F70186959DCC0C3C2CE51207DF
:100F300008F476C0033D9CE5190709F005C4F601E5
:100F40008281882309F46AC488E18CCC0D3DFCE5DC
:100F50001F0749F4F6018281882309F45FC482E007
:100F600080932D025BC40E3D2CE5120738F5053D3C
:100F70003CE5130739F4F6018281882309F44EC455
:100F800083E270CC053D8CE5180768F4F601828198
:100F9000882309F443C40E94BC0D8951893008F4A8
:100FA000C3CD89E15FCC0C3D1C4559F5F60182812A
:100FB000882309F433C410922D0230C40E3DECE5B1
:100FC0001E07C9F4F6018281882309F427C42896F4
:100FD0000FB6F894DEBF0FBECDBFDF91CF911F914A
:100FE0000F91FF90EF90DF90CF90BF90AF909F90C8
:100FF0008F900C940F26C801875F9C45079708F4D3
:10100000B1CDF601828100811181882331F1C801BF
:101010000E94CF26F82E682FC8010E94482721C0C1
:10102000033C3CE5130709F447CD08F066CD0631D3
:101030009CE5190708F011C30230ECE51E0708F023
:1010400091CD0115FCE51F0709F4BACE01301C450E
:1010500009F4FECEF60100811181C8010E941B2710
:10106000F82EB8018F2D0E94C80F182F382FF601C7
:10107000258122952F700281011110925C038091CD
:101080005A038770A9F0002399F080E2810F88301D
:1010900078F082E02F8338879E830E94A927809171
:1010A0005A038770EE24E3942F8138859E81811145
:1010B000E12CA92EA2944FE0A422B12CFCE0AF16A3
:1010C000B10408F097C2F501EA5AFF4F0C94782951
:1010D000892F807F9F70F92E882319F0F29480EF7A
:1010E000F8220023B9F0FF2009F415C280E2810F35
:1010F000883010F0311106C09091FE01F92AF0926B
:10110000FE0105C090915C03F92AF0925C030E94F5
:10111000892601C2812F38870E94AA1F3885FF20A7
:1011200009F468C2105EF094183010F0311106C056
:101130009091FE01F922F092FE0105C090915C03AE
:10114000F922F0925C030E94892654C2492F407F05
:10115000892F8F70403211F08295807F332319F0F0
:101160003130E9F025C0002381F030915D03222366
:1011700051F0213041F4982F932B391709F43AC2DA
:1011800090935D0337C2832B17C0222319F02130BF
:1011900009F430C28E830E9483268E811DC00023F5
:1011A00021F0223008F026C207C0211123C214C04A
:1011B000002329F02111AFC10E94A01F1BC22223CE
:1011C00059F0193309F0B9C10FEF27EE33E00150A0
:1011D00020403040E1F7AFC10E94951F0BC2292F7C
:1011E00026952695237030E02115310521F0213018
:1011F000310559F0FFC1002319F0812F937002C00F
:1012000080E090E00E94FC23FEC1002319F0812FB2
:10121000937002C080E090E00E94E623F4C1892F21
:10122000837009F070C00111ECC1812F8295869501
:101230008770880F880F412F4F7050E060E070E09A
:101240004A015B01082E04C0880C991CAA1CBB1C17
:101250000A94D2F714FF12C00FE010E020E030E053
:1012600004C0000F111F221F331F8A95D2F7B90146
:10127000A801409550956095709503C040E050E0FE
:10128000BA01969596959370892F90E082309105DA
:1012900029F183309105C9F000915E0310915F033D
:1012A0002091600330916103019759F04829592931
:1012B0006A297B29CB01BA016023712382239323FE
:1012C0000AC0802A912AA22AB32ACB01BA0168292E
:1012D00079298A299B290E94E32793C14829592902
:1012E0006A297B2980915E0390915F03A09160033E
:1012F000B09161038A019B01082719272A273B2700
:10130000C901B801E8CF002319F0892F817001C00D
:101310008695882309F475C1812F829586958770FB
:10132000880F880F412F4F7050E060E070E04A0155
:101330005B01082E04C0880C991CAA1CBB1C0A94D3
:10134000D2F714FF12C00FE010E020E030E004C03C
:10135000000F111F221F331F8A95D2F7B901A80170
:10136000409550956095709503C040E050E0BA01FB
:10137000969596959370892F90E082309105E9F0CB
:101380008330910579F10091560310915703209114
:10139000580330915903019759F0482959296A296E
:1013A0007B29CB01BA01602371238223932320C0C0
:1013B000802A912AA22AB32A15C0482959296A29C4
:1013C0007B298091560390915703A0915803B091C7
:1013D00059038A019B01082719272A273B27C9019E
:1013E000B80106C0CB01BA01682979298A299B294D
:1013F0000E94782706C19F70F92E002339F0892FAB
:101400000E94C227812F0E94A01FFBC0812F0E9433
:10141000951F8F2D0E948427F4C0812F323FC9F180
:1014200028F4303F49F0313F79F170C0333FC1F1CA
:10143000343F09F44DC06AC0002311F12111DAC014
:10144000292F2F7181E090E0A0E0B0E0AC01BD0158
:1014500004C0440F551F661F771F2A95D2F780914D
:10146000560390915703A0915803B09159038A01F4
:101470009B01082719272A273B27C901B80125C046
:10148000223008F0B7C0DCCF002329F0892F8F71FC
:101490002EC00023D9F3892F8F710E948427AAC000
:1014A000002381F0292F2F7181E090E0A0E0B0E0CF
:1014B000BC01CD0104C0660F771F881F991F2A95B4
:1014C000D2F703C060E070E0CB010E94782792C0A1
:1014D000002381F0192F1F71812F0E94C22728E05D
:1014E000129FC0011124836080935A03812F0E94B0
:1014F000C22780C081E02F830E94A9272F8122303C
:1015000008F478C082E00E94A92774C0002339F053
:10151000222309F4BBCF812F0E9406206BC0222317
:1015200009F4B9CF893349F43FEF87EE93E03150A6
:1015300080409040E1F700C00000812F0E94AA1F68
:1015400059C0323FB1F028F4303F49F0313FF9F053
:1015500028C0343FB9F058F0353F71F022C0002365
:1015600009F451C09091730281E0892708C081E09D
:1015700008270093730247C0011145C081E08093A2
:10158000730241C001113FC0109273023CC000239E
:1015900029F080917202882329F329C0222311F3B4
:1015A00032C0809172022223C1F0882341F09091D1
:1015B000730281E089278093730210927202812F57
:1015C000002319F00E9406201EC00E94AA1F86E078
:1015D000F60111928A95E9F716C08823A1F001114E
:1015E00012C09091730281E0892780937302109258
:1015F000720209C0F8E0AF1AB10804E0A016B10405
:1016000010F40E941224EE2009F408C180915A03BC
:1016100080FD04C1F60112828595859585950E940D
:10162000C227C6010E944B0380915A038595859578
:10163000859528960FB6F894DEBF0FBECDBFDF911B
:10164000CF911F910F91FF90EF90DF90CF90BF90BF
:10165000AF909F908F900C94842706313CE5130740
:1016600009F408CC023C1C4509F43DCCF3CCF6014E
:101670008281882309F4D2C06091F9012FEF620FB3
:1016800008F46FEF11C0093C3CE5130789F008F03E
:101690004FC0F6018281882309F4C0C06091F9012E
:1016A0002FEF621B08F460E021E04091FA010EC0C8
:1016B000F6018281882309F4B1C04091FA012CE03F
:1016C000420F08F44FEF21E06091F9018091F80199
:1016D00028960FB6F894DEBF0FBECDBFDF91CF9135
:1016E0001F910F91FF90EF90DF90CF90BF90AF9040
:1016F0009F908F900C94D50EF6018281882309F477
:101700008DC08091F80121E04091FA016091F901CA
:10171000845FDECFF6018281882309F47FC0809147
:10172000F80121E04091FA016091F9018C50D0CF8D
:10173000F6018281882309F471C04091FA012CE0FE
:10174000421B08F440E0BFCF043DECE51E0708F45F
:1017500076C846C0F6018281882309F45FC00E94E2
:10176000BC0D8650823008F4DFC986E07BC8F601E4
:101770008281882309F452C00E94BC0D82508330BC
:1017800008F4D2C982E06EC8013D9CE5190769F4EE
:10179000F6018281882309F441C00E94BC0D8F505C
:1017A000853008F4C1C98FE05DC8023D1C4560F476
:1017B000F6018281882391F10E94BC0D8950853009
:1017C00008F4B2C989E04EC8F6018281882331F15C
:1017D0000E94BC0D8551823008F4A6C985E142C83B
:1017E0000D3DFCE51F0709F4B5CB60F4053D3CE574
:1017F000130709F4C0CB08F4C9CB0C3D1C4509F410
:10180000D5CB28CC0E3DECE51E0709F4DBCBC80197
:10181000875F9C45079708F4A5C91CCC28960FB68E
:10182000F894DEBF0FBECDBFDF91CF911F910F9116
:10183000FF90EF90DF90CF90BF90AF909F908F90F0
:1018400008959091460292FF0DC0282F28712830EC
:1018500019F4877F846006C0282F2471243011F486
:101860008B7F886093FF0DC0282F2871283119F4D1
:10187000877E846106C0282F2471243111F48B7E69
:1018800088612091470220FF0DC0382F3871383011
:1018900019F4877F816006C0382F3171313011F41F
:1018A0008E7F886021FF0DC0282F2871283119F400
:1018B000877E816106C0282F2171213111F48E7E2F
:1018C000886194FD877E0895282F277081E090E03D
:1018D00001C0880F2A95EAF7809590915C038923CF
:1018E00080935C030C948926282F277081E090E078
:1018F00001C0880F2A95EAF790915C03892B8093A9
:101900005C030C948926CF93E82F873080F5809173
:10191000070190910801892B09F047C0CE2F64E69A
:1019200070E080E40E94582890930801809307019A
:10193000892BD1F464E670E082E10E94AF28909395
:10194000080180930701892B79F481E090E001C0C0
:10195000880FCA95EAF764E670E080950E94AF2888
:101960009093080180930701CF910C94042990E093
:10197000FC013797E730F105C0F4EE59FF4F0C94A6
:101980007829209A289811C0219A29980EC0229A65
:101990002A980BC0239A2B9808C0529A5A9805C0CF
:1019A000539A5B9802C03E9A4698CF910895CF9380
:1019B000873008F03FC08091070190910801892B82
:1019C00009F041C064E670E080E40E9458289093DA
:1019D000080180930701892B11F0C0E027C064E65D
:1019E00070E083E10E94AF28909308018093070183
:1019F000892B99F764E670E081E40E94582890935F
:101A0000080180930701892B41F784E690E00E944A
:101A1000DF2897FF05C09093080180930701DDCF71
:101A2000C82FC09510920801109207010E94042946
:101A30008C2F0AC09FB18FB1807F86958695937059
:101A4000892B809501C080E0CF910895EF92FF929D
:101A50000F931F93CF93DF938091F70180FF2EC0E8
:101A6000EFB6F090BC00F8948091BC008B7F80931F
:101A7000BC008BB18C7F8BB95098589A5198599A69
:101A800035E03A95F1F700008AB18C7F8AB985E09C
:101A90008A95F1F70000519A5998E5E0EA95F1F737
:101AA0000000509A5898F5E0FA95F1F7000084E8A4
:101AB0000E941E24C7E7D2E08E010DC080E090E0B6
:101AC000FC01E958FD4F11821082128204968C337A
:101AD0009105B1F7C5CFF2E0033B1F0731F0F801E4
:101AE00081918F010E941E24F6CF5098589A35E0BC
:101AF0003A95F1F700005198599A85E08A95F1F7E7
:101B00000000EFBEF092BC00579A8BB18F779BB16B
:101B100090682FB7F894E2E0C33BDE0789F0399173
:101B200048E09BB9000000C037FF8BB9330F0000BD
:101B300000C000C000C08BB900C04A9591F7EBCF40
:101B40002FBFDF91CF911F910F91FF90EF900895DC
:101B50009091F70190FF0FC020E030E0F901E958C3
:101B6000FD4F8183608342832C5F3F4F2C333105CF
:101B7000A9F70C94260D08958091F70180FF02C00B
:101B80008695089580E008958091F701282F269585
:101B900030E02115310519F48170826005C02532CD
:101BA000310524F0817088648093F7010895CF9304
:101BB000DF9300D000D0CDB7DEB7AB01BC014983C5
:101BC0005A836B837C830E94C40D49815A816B8147
:101BD0007C8188E090E00F900F900F900F90DF9144
:101BE000CF910C942E29E7EFF1E080818E7F8083E6
:101BF00060817181828193810E94D70D1092710260
:101C00002FEF80E792E0215080409040E1F700C044
:101C100000000C94260DE7EFF1E083E08083118251
:101C20008FEF8283838314826081718182819381AB
:101C30000C94D70DAF92BF92CF92DF92EF92FF92AA
:101C40000F931F93CF93DF93D82EC62EE901E42F75
:101C5000F0E0611106C0E85FFC4F4491E42F842F4F
:101C60007BC0E62EF12C26E0829FC00111240FEFED
:101C700010E0B8010E9450295BEA56039001579F7B
:101C8000300D11242D0D311D2D0D311D822F880F8A
:101C9000280FC8018E199F098E9FD0018F9FB00D0C
:101CA0009E9FB00D11249B2F2C9D60011124CD2CE3
:101CB000DD245801AC18BD08AE9E6001AF9ED00C6B
:101CC000BE9ED00C11245801A21AB108AE9C9001FE
:101CD000AF9C300DBE9C300D1124232F3327021BE7
:101CE000130B0E9F90010F9F300D1E9F300D11247E
:101CF000832F6230710591F04CF461157105E9F0A4
:101D000061307105C1F4842F4D2D17C06430710509
:101D100071F044F06630710581F00DC0842F4B2FB7
:101D2000932F0BC0E42F4B2F9E2F8D2D06C08B2F92
:101D3000942F432F02C08B2F9D2DE42FF0E0E85FFE
:101D4000FC4F4491E82FF0E0E85FFC4F8491E92FCD
:101D5000F0E0E85FFC4FE49149838883EA83DF91F8
:101D6000CF911F910F91FF90EF90DF90CF90BF9098
:101D7000AF900895CF93DF9300D000D0CDB7DEB7FA
:101D80009091F70190FF0AC09E012F5F3F4F0E9484
:101D90001A0E4B8169818A810E94A80D0F900F90C5
:101DA0000F900F90DF91CF9108955F926F927F9285
:101DB0008F929F92AF92BF92CF92DF92EF92FF925B
:101DC0000F931F93CF93DF9300D000D0CDB7DEB732
:101DD000182F762E042F622E9091F70190FF6DC080
:101DE000E92FE695AE2FB0E0A05EBE4F8C918093B8
:101DF00070029E7F923061F49E012F5F3F4F812FD2
:101E00000E941A0E4B8169818A810E94A80D43C0ED
:101E1000823019F40091FA013EC0863019F4109115
:101E2000F80139C08930D9F38931A9F5E9518E2FEC
:101E30008170582EE695F0E0E85FFB4FA590B490D6
:101E400087E7C82E82E0D82EE12CF12CBB249FE03E
:101E5000892E912CEA9CC001EB9C900DFA9C900D70
:101E60001124B4010E945029812F511002C0860F05
:101E700001C0861B9601402F672D0E941A0E8FEF1E
:101E8000E81AF80A84E0C80ED11C8FE0E816F104C5
:101E900009F70E94260D1093F8017092F901009342
:101EA000FA01662051F06091F7017091F80180917C
:101EB000F9019091FA010E94D70D0F900F900F90A9
:101EC0000F90DF91CF911F910F91FF90EF90DF90D6
:101ED000CF90BF90AF909F908F907F906F905F90CA
:101EE00008959091F70190FF36C09170811102C062
:101EF000926006C0853210F0986402C0880F982B5B
:101F00009093F701662351F06091F7017091F80109
:101F10008091F9019091FA010E94D70D6091F7012B
:101F2000669570E04BE050E083E191E00E94AB2ABF
:101F3000892B19F01092710202C00E94A52481E041
:101F400080936D0220E04091FA016091F901809147
:101F5000F8010C94D50E089561E00C94710F8091F6
:101F6000F7018695815009F484E261E00C94710FC9
:101F70008091F70186958F5F853208F081E061E0FE
:101F80000C94710F609130028CE090E00C941C294D
:101F9000CF93DF9326E0729FF001112434E5839FF5
:101FA000E00DF11D1124E60FF11DEE0FFF1FE05FA4
:101FB000FE4FC591D491CE01C238D10569F1B0F47C
:101FC000C133D10509F475C048F4C932D10509F40B
:101FD00069C0CA32D10509F473C079C0C533D105CF
:101FE00009F459C0C933D105B9F071C0C33ED10558
:101FF00071F138F4C03ED105B1F0C23ED10511F106
:1020000066C0C63ED105B9F1C73ED105C9F1C43E8F
:10201000D10509F05CC024C02091460220FD29C2F0
:1020200021FD27C22BC22091460220FD1CC2209117
:10203000470220FF23C28091460284FDC6C183EE81
:1020400090E01CC22091460222FF18C2F4CF80917A
:10205000460282FD0BC28091470280FD0AC2EBCF8F
:102060002091470221FF0AC28091460284FDADC142
:1020700087EE90E003C22091460223FFFFC1F4CF18
:102080008091460283FDF8C18091470281FFECCF29
:1020900084EE90E0F3C12091460225FFEFC189E272
:1020A00090E0ECC12091460225FFE8C185E390E075
:1020B000E5C12091460226FFE1C18AE290E0DEC13F
:1020C0002091460226FFDAC181E390E0D7C1C11515
:1020D00040E5D40708F047C0C11520E4D20708F056
:1020E00034C1C83ED10518F5C03ED10508F0C6C1BF
:1020F000C83AD10570F4C53AD10508F0B1C0C13075
:10210000D10509F4BBC108F460C1249708F45DC18E
:10211000B5C1CF3BD10508F4AEC0C03CD10508F431
:1021200054C1FE01EE0FFF1FE857FE4F03C1C1155A
:1021300030E2D30760F4C11541E0D40708F09EC136
:10214000C03FD10508F441C1CE01906597C1C115CA
:1021500080E3D80708F0F1C0FE01FF70EE0FFF1F0B
:10216000E85FFC4FE7C0C11595E5D90708F044C00A
:10217000C11524E5D20708F002C1C11532E5D30725
:1021800010F5C11541E5D40708F0E4C08C2F837029
:1021900021E030E002C0220F331F8A95E2F73C684D
:1021A000CE0174E0969587957A95E1F78370382B88
:1021B000EC2FEF70E695E69540E2E49FC001112414
:1021C000822B932B5BC12C2F26952695AE01437055
:1021D0005527C115D34508F0C3C080E2289F900160
:1021E000112481E090E002C0880F991F4A95E2F720
:1021F000822B932B9C6842C1C1159AE5D907A8F49C
:10220000C11529E5D20708F0C9C0C11536E5D307C5
:1022100008F4BBC0C11548E5D40708F4D6C0FC2FAC
:10222000EE27CF01806F906A29C1C1158BE5D807D1
:1022300008F4CBC0C1159CE5D90708F4C2C0CE0193
:1022400090568115904208F0C0C08D2F8F710E946A
:10225000210CFE01FF27F0628F719F01382BAFC068
:10226000C53AD10509F4B4C0C63AD10509F0B3C0E6
:1022700082E890E403C1C83AD10509F4AFC0C93A75
:10228000D10509F4AEC0CA3AD10509F4ADC0CB3AC4
:10229000D10509F4ACC0CC3AD10509F4ABC0CB3BB5
:1022A000D10509F4AAC0CC3BD10509F4A9C0CD3AA7
:1022B000D10509F4A8C0C03BD10509F4A7C0CE3AA6
:1022C000D10509F4A6C0CF3AD10509F4A5C0C13B98
:1022D000D10509F4A4C0C23BD10509F4A3C0C33B96
:1022E000D10509F4A2C0C43BD10509F4A1C0C53B86
:1022F000D10509F4A0C0C63BD10509F49FC0C73B76
:10230000D10509F49EC0C83BD10509F49DC0C93B65
:10231000D10509F49CC0CD3BD10509F49BC0CE3B4F
:10232000D10509F49AC0CA3BD10509F499C080E0EF
:1023300094E4A4C085919491A1C0CE019927D3FFC4
:1023400002C0986C9BC0906C99C0FE01FF70CF01D9
:10235000906A94C0FC2FEE27CF01816F906A8EC0E7
:1023600090E2299F9001112481E090E002C0880F43
:10237000991F4A95E2F7822B932B9A687FC0FC2F16
:10238000EE27CF01846F906A79C08C2F0E94210CB8
:102390008F7190E0982F8827906270C08C2F8F707B
:1023A0000E94210CFE0194E0F695E7959A95E1F7DD
:1023B000EF70F0E0FE2FEE27F0699F01282BC90196
:1023C0005DC0CE019927906659C080E090E056C06C
:1023D00081E890E453C083E890E450C082EE94E436
:1023E0004DC089EE94E44AC08AEE94E447C085EB80
:1023F00094E444C086EB94E441C083EB94E43EC093
:1024000084EB94E43BC087EB94E438C08CEC94E418
:1024100035C08DEC94E432C083E895E42FC08AE89F
:1024200095E42CC082E995E429C084E995E426C0AE
:1024300081E296E423C083E296E420C084E296E43D
:102440001DC085E296E41AC086E296E417C087E2D2
:1024500096E414C08FE694E411C080E794E40EC0C3
:102460008AE296E40BC089E390E008C082EE90E037
:1024700005C080EE90E002C086EE90E0DF91CF9143
:102480000895CF92DF92EF92FF920F931F936B010B
:102490007C01AC016627772741155105610571055F
:1024A00011F080E103C0B701A60180E0052F162FCF
:1024B000272F3327011511052105310519F0885FF4
:1024C000B901A8018A019B01F4E03695279517957B
:1024D0000795FA95D1F7011511052105310519F078
:1024E0008C5FB901A8018A019B01E2E0369527952E
:1024F00017950795EA95D1F70115110521053105C5
:1025000019F08E5FB901A8017695679557954795A3
:10251000452B462B472B09F08F5F56985E982598E0
:102520002D9826982E9827982F98482F50E0FA013A
:102530003197E730F105B0F4E759FF4F0C94782953
:10254000259A2D9A27C0259A2D9A269A2E9A22C02E
:10255000259A2D9A04C0259A2D9A269A2E9A279A62
:102560002F9A18C0811116C08091EE0181113CC0D4
:102570008091F70181608093F70160E086950E9469
:10258000710F60E081E00E94710F20E040E060E0A8
:1025900080E025C08091EE01811126C088E090E0A6
:1025A0000E9410296093F7017093F8018093F9015C
:1025B0009093FA01862F60FF15C081608093F70128
:1025C00086950E94AC0F8091F70186950E94AC0F12
:1025D00021E04091FA016091F9018091F8010E9497
:1025E000D50E02C00E94F30DC701B6011F910F91D5
:1025F000FF90EF90DF90CF90089580E290E090936D
:102600000801809307018091F50181110EC00E949D
:10261000522881E08093F5012FEF83ED90E3215064
:1026200080409040E1F700C0000064E670E080E484
:102630000E9458289093080180930701892B09F084
:102640004EC064E670E080E00E94AF2890930801DD
:1026500080930701892B09F042C064E670E080E0B6
:102660000E94AF289093080180930701892BB9F548
:1026700064E670E08FE30E94AF2890930801809396
:102680000701892B61F50E94042964E670E080E46B
:102690000E9458289093080180930701892BF9F430
:1026A00064E670E08CE00E94AF289093080180936C
:1026B0000701892BA1F464E670E080E00E94AF2856
:1026C0009093080180930701892B49F464E670E038
:1026D0008FE30E94AF2890930801809307010E9426
:1026E0000429809107010895CF93DF9356985E984F
:1026F00025982D9826982E9827982F98C8E8D0E0EE
:102700008FEF90E099838883AAE8B0E011969C93BC
:102710008E93ECE8F0E091838083259A2D9A2FEF39
:1027200080E792E0215080409040E1F700C0000037
:10273000269A2E9A2FEF80E792E021508040904019
:10274000E1F700C00000279A2F9A2FEF80E792E070
:10275000215080409040E1F700C0000025982D985E
:102760002FEF80E792E0215080409040E1F700C0D9
:10277000000026982E982FEF80E792E021508040AD
:102780009040E1F700C0000027982F988091340214
:1027900087702FEF829FC00111249595879595959D
:1027A000879599279983888311969C938E9391831B
:1027B000808356985E9825982D9826982E9827986D
:1027C0002F98DF91CF91089584B1807F84B985B12E
:1027D000807F85B98AB1837F8AB98BB1837F8BB9BA
:1027E0003E984698089580B38C7080BB81B3836F08
:1027F00081BB08959F92AF92BF92CF92DF92EF92EA
:10280000FF920F931F93CF93DF93809107019091D5
:102810000801892B91F08091F4018F5F8093F4017E
:1028200081110BC00E94FD1290E0909308018093EB
:102830000701892B11F40E94741308E312E02FE3BF
:10284000E22E22E0F22E6801C0E0912C97E0A92E42
:10285000AC0E8C2F0E94830C8A2D0E94830C8C2F2F
:102860000E94D70CF6019081981721F08083BB2439
:10287000B39401C0B12C8A2D0E94D70CF70190812E
:10288000981719F0808381E001C080E0B82A9B2866
:102890000E94E413CF5FFFEFCF1ADF0A8FEFE81A31
:1028A000F80AC73099F60E945B256AEF70E00E9433
:1028B00050299C01682F8091F3018823E9F110923F
:1028C000F301E0912E02F0912F02DF011E9690E0BD
:1028D0007BEF8AEFE82EF12C80818B3FA9F0482F07
:1028E00050E0681728F0E901C41BD50BAE0106C003
:1028F0006701C41AD50AA601420F531F4E31510574
:1029000014F0708301C091E03196EA17FB0721F7BC
:102910009093F301911002C0911110C01092F20136
:10292000A0912E02B0912F029091F301ECE4F2E01D
:1029300080E03EE03E0F07C09110F0CF8091F201A1
:102940008111ECCF16C0E80129918E014081421718
:1029500041F04C914B3F21F46C93208391E001C0F6
:1029600081E0119631963E13EECF9093F301809360
:10297000F201892DDF91CF911F910F91FF90EF9080
:10298000DF90CF90BF90AF909F900895CF93DF934B
:10299000EC0180EEFE01099581EEFE01DF91CF9101
:1029A0000994CF92DF92FF920F931F93CF93DF93FF
:1029B0001F92CDB7DEB7F82E8B0199830E94011AC2
:1029C000998181111CC0CF2CD92E01151105B1F0B0
:1029D0008091E80085FD0AC08091E8008E778093A1
:1029E000E8000E94011A882381F309C0F601819151
:1029F0006F018093F10001501109E7CF80E00F9043
:102A0000DF91CF911F910F91FF90DF90CF900895AC
:102A10001F93CF93DF93CDB7DEB7AA970FB6F89485
:102A2000DEBF0FBECDBFE5E2F2E088E08E0F9091F1
:102A3000F10091938E13FBCF80912602833009F42D
:102A400060C030F4813071F0823009F49CC0B3C0B2
:102A50008A3009F488C08B3009F46BC0893009F0E2
:102A6000AAC020C080912502813A09F0A4C08091BB
:102A7000E800877F8093E8008091290290912A02E4
:102A8000892B21F460E281E092E003C060E080E005
:102A900090E070E00E94871A8091E8008B77809325
:102AA000E80089C080912502813209F084C08091BC
:102AB000290290912A02029708F07DC08091E800D7
:102AC000877F8093E8008091E80082FD05C08091B7
:102AD00023028111F8CF6FC02091F3008091F200A2
:102AE00090E0922B029729F48091F1008B7F813046
:102AF00021F48091F100809300028091E8008B77AF
:102B000056C080912502813A09F055C08091290272
:102B100090912A02892B09F04EC08091E800877FAE
:102B20008093E8008091E80080FFFCCF809106014F
:102B300039C0809125028132F1F58091290290916E
:102B40002A02892BC1F58091E800877F8093E800F5
:102B50000E94331A80912702809306011092FE0191
:102B60000E94821F28C080912502813221F5809128
:102B7000E800877F8093E8000E94331A8091280242
:102B80008093FF0118C080912502813AA1F48091C1
:102B9000E800877F8093E8008091E80080FFFCCF09
:102BA0008091FF018093F1008091E8008E778093FF
:102BB000E8000E94331A8091E80083FFD6C180911B
:102BC000250290912602492F50E04A30510508F025
:102BD000CCC1FA01E059FF4F0C947829803821F0DC
:102BE000823809F0C2C108C080912102909122026E
:102BF000992389F082600FC0809129028F708730FD
:102C000008F0B3C18093E9008091EB0085FB882731
:102C100080F91092E9009091E800977F9093E80086
:102C20008093F1001092F10074C1282F2D7F09F0DC
:102C30009CC1882319F0823061F097C180912702EE
:102C4000813009F092C1933009F080E08093220234
:102C50002EC08091270281112AC0809129028F7095
:102C60002FEF280F263008F080C18093E9002091D3
:102C7000EB0020FF1CC0933021F48091EB008062B8
:102C800014C09091EB0090619093EB0021E030E054
:102C9000A90102C0440F551F8A95E2F74093EA004C
:102CA0001092EA008091EB0088608093EB00109214
:102CB000E9008091E800877F2FC1811156C11091F2
:102CC00027021F778091E3008078812B8093E300B7
:102CD0008091E800877F8093E8000E94331A8091FA
:102CE000E80080FFFCCF8091E30080688093E300E0
:102CF000111102C082E001C083E08093230235C13C
:102D00008058823008F031C18091270290912802CA
:102D10008C3D53E0950779F583E08A838AE28983C5
:102D20004FB7F894DE01139620E03EE051E2E32F26
:102D3000F0E050935700E49120FF03C0E295EF705C
:102D40003F5FEF708E2F90E0EA3010F0C79601C021
:102D5000C0968D939D932F5F243149F74FBF80918B
:102D6000E800877F8093E8006AE270E0CE01019678
:102D70000E94871ABDC04091290250912A02292F32
:102D8000332723303105B9F06CF42130310509F4D3
:102D9000FBC02230310509F0E8C08BE390E0EEEB98
:102DA000F4E054C02132310509F433C02232310538
:102DB00009F43CC0DAC0992781309105D1F05CF468
:102DC000892B09F0D2C0E1E4F5E0E4918E2F90E088
:102DD000E1E4F5E038C08230910599F0039709F0FD
:102DE000C4C0EBE0F5E0E4918E2F90E0EBE0F5E07D
:102DF0002AC0E9E2F5E0E4918E2F90E0E9E2F5E007
:102E000022C0E1E1F5E0E4918E2F90E0E1E1F5E010
:102E10001AC04115510509F4BCC04130510509F0F3
:102E2000A4C089E090E0E9EEF4E010C0411551053E
:102E300009F4B4C04130510509F097C081E790E032
:102E4000EDE0F4E003C0009709F48FC02091E800A2
:102E5000277F2093E80020912B0230912C02281725
:102E6000390708F4C90140E0009789F12091230255
:102E7000222309F43DC02530D9F12091E80023FD3B
:102E800037C02091E80022FD2FC02091E80020FFEC
:102E9000EBCF4091F3002091F20030E0342B00970B
:102EA00059F02830310540F444914093F1003196B7
:102EB00001972F5F3F4FF3CF41E02830310509F0F4
:102EC00040E02091E8002E772093E800CDCF41111B
:102ED000CDCF0AC080912302882351F0853041F084
:102EE0008091E80083FD04C08091E80082FFF2CF6A
:102EF0008091E8008B778093E80037C08038A9F58F
:102F00008091E800877F8093E8008091240280937D
:102F1000F1008091E8008E778093E8000E94331AD8
:102F200024C0811122C0109127021230F0F4809148
:102F3000E800877F8093E800109324020E94331AF0
:102F4000111106C08091E30087FD02C081E001C03D
:102F500084E08093230242E061EC81E00E94521AF7
:102F600042E261EC82E00E94521A8091E80083FF05
:102F70001AC08091E800877F8093E8008091EB0081
:102F800080628093EB000FC082E190E0E9EFF4E013
:102F90005DCF89E090E0E0EDF4E058CF80E490E090
:102FA000EEE7F4E053CFAA960FB6F894DEBF0FBE5B
:102FB000CDBFDF91CF911F9108951F920F920FB651
:102FC0000F9211242F933F934F935F936F937F93AF
:102FD0008F939F93AF93BF93CF93DF93EF93FF9321
:102FE000C091E900CF708091EC00D82FD17080FDA6
:102FF000D0E81092E9008091F000877F8093F00084
:1030000078940E9408151092E9008091F000886081
:103010008093F000CD2BCF70C093E900FF91EF912A
:10302000DF91CF91BF91AF919F918F917F916F91E0
:103030005F914F913F912F910F900FBE0F901F9076
:103040001895E8EDF0E080818E7F80831092E20099
:103050001092DA001092E100A0EEB0E08C91816055
:103060008C9380818F77808319BCA7EDB0E08C9121
:103070008E7F8C9380818F7E80831092F6010895DD
:10308000CF92DF92EF92FF920F931F93CF93DF9334
:10309000C8EDD0E088818F7E8883E7EDF0E0808105
:1030A0008160808384E082BF81E08093F601888123
:1030B0008E7F888302EE10E0F80110821092DA0011
:1030C00081EEC82ED12CF601108288818F778883FB
:1030D00088818068888388818F7D888319BC10925D
:1030E000230210922402109222021092210290EEEA
:1030F000E92EF12CF70180818B7F808388818160AC
:10310000888342E060E080E00E94521AF6018081EC
:103110008E7F8083F80180818160808380818860D8
:103120008083F70180818E7F80838881806188839E
:10313000DF91CF911F910F91FF90EF90DF90CF9093
:1031400008951F920F920FB60F9211242F933F9361
:103150004F935F936F937F938F939F93AF93BF939F
:10316000EF93FF938091E10082FF09C08091E2001C
:1031700082FF05C08091E1008B7F8093E100809108
:10318000DA0080FF2AC08091D80080FF26C080919D
:10319000DA008E7F8093DA008091D90080FF18C01A
:1031A00080E189BD82E189BD09B400FEFDCF81E0E7
:1031B000809323028091F60181110FC00E94211893
:1031C0000E9440188091E20084608093E20005C074
:1031D00019BC109223021092F6018091E10080FF49
:1031E00017C08091E20080FF13C08091E2008E7FC3
:1031F0008093E2008091E20080618093E200809100
:10320000D80080628093D80019BC85E080932302A7
:103210008091E10084FF45C08091E20084FF41C0BD
:1032200080E189BD82E189BD09B400FEFDCF8091B6
:10323000D8008F7D8093D8008091E1008F7E8093AD
:10324000E1008091E2008F7E8093E2008091E200B5
:1032500081608093E20080912402882311F084E051
:1032600007C08091E30087FD02C081E001C083E0D8
:10327000809323021092FE010E94821F0E9412245A
:103280001092FD018091FC01882349F08091F701A3
:1032900081608093F70160E086950E94710F0E9423
:1032A000A5248091E10083FF27C08091E20083FF85
:1032B00023C08091E100877F8093E10082E08093CA
:1032C0002302109224028091E1008E7F8093E1001E
:1032D0008091E2008E7F8093E2008091E200806125
:1032E0008093E20042E060E080E00E94521A809108
:1032F000F00088608093F000FF91EF91BF91AF9153
:103300009F918F917F916F915F914F913F912F91FD
:103310000F900FBE0F901F901895CF93DF9300D0A2
:103320001F92CDB7DEB79C0190912D02911105C07F
:1033300080912302843049F504C0923011F094301A
:1033400021F584E089833B832A8382E08093E9002E
:103350008FEF9091E800815095FD06C095ED9A950C
:10336000F1F700008111F5CF8091E80085FF0DC0D5
:1033700040E050E063E070E0CE0101960E94D1147D
:103380008091E8008E778093E8000F900F900F9067
:10339000DF91CF910895CF93DF9300D01F92CDB7E7
:1033A000DEB720912302243031F523E029838058B1
:1033B00091099B838A8382E08093E9008FEF90914B
:1033C000E800815095FD06C095ED9A95F1F7000053
:1033D0008111F5CF8091E80085FF0DC040E050E0FD
:1033E00063E070E0CE0101960E94D1148091E80064
:1033F0008E778093E8000F900F900F90DF91CF9120
:1034000008952091E4003091E50095E64091EC00AC
:10341000842F817040FF22C08091E80080FD1CC095
:1034200080912302882391F0853091F08091EB0008
:1034300085FD10C04091E4005091E500421753070C
:1034400029F39A01915011F784E0089582E00895DC
:1034500083E0089581E0089580E008954091E800B8
:1034600042FFDECF08958091250287FF11C0809131
:10347000E80082FD05C0809123028111F8CF11C0C0
:103480008091E8008B770BC080912302882349F05C
:103490008091E80080FFF8CF8091E8008E778093DC
:1034A000E8000895982F973058F59093E900981701
:1034B00039F07091EC002091ED005091F00003C0C4
:1034C000242F762F50E021FF19C03091EB003E7F72
:1034D0003093EB003091ED003D7F3093ED00309163
:1034E000EB0031603093EB007093EC002093ED0023
:1034F0005093F0002091EE0027FF07C09F5FD3CFCD
:103500008F708093E90081E0089580E00895209114
:103510002B0230912C022617370748F061157105F0
:1035200039F42091E8002E772093E80001C0B9011A
:1035300040E061157105A9F120912302222309F4CD
:1035400043C0253009F442C02091E80023FD40C06B
:103550002091E80022FD32C02091E80020FFE9CF51
:103560004091F3002091F20030E0342BFC01CF01B8
:103570006115710559F02830310540F4819180932F
:10358000F100615071092F5F3F4FF1CF41E02830CA
:10359000310509F040E02091E8002E772093E80003
:1035A000C8CF4111C9CF0AC080912302882361F09E
:1035B000853061F08091E80083FD0AC08091E800C9
:1035C00082FFF2CF80E0089582E0089583E00895BD
:1035D00081E00895CF93DF93CDB7DEB72C970FB678
:1035E000F894DEBF0FBECDBF84B7877F84BF0FB610
:1035F000F894A89580916000886180936000109293
:1036000060000FBE80E8809361001092610085B772
:10361000806885BF85B7806885BF0E9421180E9499
:1036200040188091E20084608093E2007894809159
:1036300023028823A1F01091E9001F709091EC0003
:10364000892F817090FD80E8182B1092E9008091FD
:10365000E80083FD0E9408151F701093E90082E0C6
:1036600084BD93E095BD9AEF97BD80936E000E9454
:10367000FD1290E090930801809307010E94E413EB
:103680000E94F313A8E3B2E0ECE4F2E02EE0D22EC5
:10369000DE0E11921D92DE12FCCF8EE090E00E94B1
:1036A0007E2980932E0290932F02FC010E962BEF21
:1036B0002193E817F907E1F70E940426811102C05F
:1036C0000E940F268CE090E00E94082990E0A0E084
:1036D000B0E08093300290933102A0933202B09315
:1036E000330289EA8093800089E0809381002498E6
:1036F0002C983F988AB18F7C8AB96E98479A8BB183
:1037000080638BB9769A8FE090E00E9410296093D5
:1037100034027093350280933602909337026770BB
:103720002FEF629FB0011124759567957595679588
:103730007727709389006093880070938B00609363
:103740008A0070938D0060938C000E9474130E9415
:103750000426811102C00E940F2682E090E00E94A0
:10376000082980935B020E94F3259093470280937F
:10377000460283E090E00E940829682F70E080E014
:1037800090E00E94E32780914802811138C0809127
:103790005B02816080935B020E940426811104C059
:1037A0000E940F260E940B0E88E090E00E941029D4
:1037B0006093F7017093F8018093F9019093FA01F7
:1037C0006E7F71F40E940B0E88E090E00E94102939
:1037D0006093F7017093F8018093F9019093FA01D7
:1037E0000E94C40D109271028091F70180FF04C005
:1037F00060E086950E94710F81E08093480289E025
:1038000091E090934A028093490285E4E82E85E096
:10381000F82E80912302853009F065C08091230243
:10382000843009F441C010924B0220E488E190E01A
:103830000FB6F894A895809360000FBE20936000A7
:10384000109271028091FD01811117C081E0809377
:10385000FD018091F701982F91709093FC018E7F6C
:103860008093F7018FEF90E7E2E081509040E040D5
:10387000E1F700C000000E94260D83B7817F8460BD
:1038800083BF83B7816083BF7894889583B78E7F29
:1038900083BF0FB6F894A8958091600088618093EB
:1038A0006000109260000FBE80912202882309F40C
:1038B000B0CF0E94FD1290E0909308018093070121
:1038C0000E94E4130E94F313ECE4F2E01192DE1282
:1038D000FDCF0E94FA13ECE4F2E081918111FDC06A
:1038E000DE12FBCF96CF0E94FA13ECE5F2E0ACE4D7
:1038F000B2E000E010E0302F2D9141914227B9F164
:1039000080E090E050E0682F5A01082E02C0B59484
:10391000A7940A94E2F7A0FE26C089833A8381E047
:1039200090E05C0102C0AA0CBB1C6A95E2F7822FF2
:1039300090E08A219B2121E0892B09F420E02B8350
:103940000E945B258160782F9D838C8349815A81F9
:103950006B818D810E941023F801E45AFD4F808114
:10396000A826A0821AC001968630910561F60F5FE5
:103970001F4F0E30110509F0BECF8FEF8E838F835E
:1039800018860E945B258160782F9A8789874E81EF
:103990005F8168858A850E94102310915A020E94D7
:1039A0001224181721F00E94122480935A02809149
:1039B0007102882309F42DCF80917002E091F70104
:1039C000E695E81BE0936C02823049F4F0E0ED5A92
:1039D000FA4FE4910E2F10E02CEF32E248C086300F
:1039E00049F4F0E0E05BFA4FE4910E2F10E02CEE8A
:1039F00032E23DC0893051F4E695F0E0E35BFA4FE6
:103A0000E4910E2F10E020E832E231C08F3051F403
:103A1000E695F0E0E65BFA4FE4910E2F10E020E12E
:103A200032E225C0853149F4F0E0E95BFA4FE491D8
:103A30000E2F10E024EB31E21AC0883179F0833286
:103A400031F4F701059114912AEA32E210C0843270
:103A500051F404EF11E027E431E209C008EE13E06D
:103A60002FE731E204C000ED17E02AE231E2809155
:103A70006D028823A9F010926D022B873C870E946B
:103A80005B25A80140955095840F951F90936B027C
:103A900080936A0210926F0210926E023C852B8511
:103AA00080916A0290916B022B873C870E9431259E
:103AB0002B853C858017910708F4ABCEE0916A0214
:103AC000F0916B020E0F1F1F10936B0200936A029E
:103AD0008AE692E0F90109959CCE80E189BD82E1F8
:103AE00089BD09B400FEFDCF8091D8008F7D809301
:103AF000D8008091E00082608093E0008091E00037
:103B000081FDFCCF86CE0E941027292F2F70929521
:103B10009F70E92FF0E03297EE30F105B8F4E658E7
:103B2000FF4F0C947829803F99F018F4883E70F488
:103B30000FC0843F59F40CC0883E50F0813F31F4EF
:103B400007C0822F869586958695089580E0089512
:103B500081E00895BF92CF92DF92EF92FF920F9390
:103B60001F93CF93DF93CDB7DEB761970FB6F8946D
:103B7000DEBF0FBECDBF8C0185E0F801DE011D96D2
:103B800001900D928A95E1F7D8013C9111962C9104
:103B900011971296EC9012971396CD90DC90149793
:103BA0005091E7026091E8028091EA029091EB0265
:103BB000009709F44FC16F3F19F45F3F09F44AC100
:103BC000B090E902BB2009F4ECC04091EC02C816A9
:103BD000D90628F0F601E81BF90BCF0104C0809547
:103BE00090958C0D9D1DFF24F394883C910548F021
:103BF000F12C407F09F09FC087EE92E00E944B03BA
:103C000021C1842F807F09F044C0621312C0531376
:103C100010C0E1100EC04F7040614093EC0287EE7F
:103C200092E00E944B038091EC02D80115968C9390
:103C30002EC0CD2819F12F3F11F43F3FF9F0FE2C93
:103C4000E1101CC080911E034091ED0256E08417E4
:103C500009F458C090E0589FF001599FF00D1124CD
:103C6000E251FD4F6181261306C06081361303C007
:103C70006281611103C001968770E9CFFE2CEE20AE
:103C800009F421C18091EC0281608093EC02F12C57
:103C90001AC162130AC0531308C0E11006C0809114
:103CA000EC02D80115968C93B0C03D872E878D8588
:103CB0009E850E94831D8823D1F1EE20C1F12091C1
:103CC000EC02822F82958F7090E0029774F08091C1
:103CD000E7029091E80298878F831986DB86CA866F
:103CE0002C87CE0107960E944B0386E0F801A7EED1
:103CF000B2E001900D928A95E1F70E94F727FF2428
:103D0000F394E1C03D872E878D859E850E94102704
:103D1000292F22952F7030E0223031050CF0C7C0DA
:103D20009F7009F0C1C0805E883008F4CCC0C80123
:103D30000E944B03E4CF621314C0531312C0E1106E
:103D400010C08091EC02F8018583C8010E944B03EA
:103D500086E0E7EEF2E0DF011D928A95E9F7FB2CA1
:103D6000B2C03D872E878D859E850E94831D882346
:103D7000F1F2EE20E1F22091EC02822F82958F7019
:103D800090E002970CF4B1CF8091E7029091E802A5
:103D90009A8389831B82DD82CC822E83CE01019699
:103DA000A2CFC816D90638F0C81AD90AB8ECCB1673
:103DB000D10450F007C0809590958C0D9D1D883CD6
:103DC000910510F0F12C3EC0FE2CEE2009F4AFCF8F
:103DD000621327C0531325C02091EC0220FD18C0A8
:103DE000822F82958F70482F50E04115510581F048
:103DF000F80125834F30510541F08F5F982F929540
:103E0000907F822F8F70892B8583C8010E944B037E
:103E100086E0F801A7EEB2E001900D928A95E1F7F5
:103E200052C03D872E878D859E850E94831D8111FE
:103E30005CCF8091EC0281608093EC02C8010E940B
:103E40004B0341C0E7EEF2E086E0DF011D928A9568
:103E5000E9F739C0EE2009F46ACF3D872E878D85BA
:103E60009E850E94831DF82E882309F460CF86E08A
:103E7000F801A7EEB2E001900D928A95E1F78091EA
:103E8000E7029091E8020E94102792959F70963069
:103E900041F48091730291E089278093730290939B
:103EA00072020E94F7270FC081113DCF0CC0243051
:103EB00031050CF03CCF9F7009F435CFF8019581A6
:103EC000907F09F030CF8F2D61960FB6F894DEBF4A
:103ED0000FBECDBFDF91CF911F910F91FF90EF905B
:103EE000DF90CF90BF90089510925C0310925B0317
:103EF0000E94892680E090E00E94FC2380E090E010
:103F00000C94E62380910601882331F080914602CB
:103F100087FF02C08EE101C086E0E9ECF2E0DF013C
:103F20001D928A95E9F70C94741F882341F08095BF
:103F30009091FE0189238093FE010C9489260895B7
:103F4000882339F09091FE01892B8093FE010C9417
:103F500089260895882309F458C0682F823869F4A7
:103F60000E94122481FF51C069E387EC92E00E9415
:103F7000BB250E94892669E30EC0833891F40E9414
:103F8000122480FF42C063E587EC92E00E94BB25CB
:103F90000E94892663E587EC92E00E9490250C94AC
:103FA0008926843869F40E94122482FF2EC067E4B7
:103FB00087EC92E00E94BB250E94892667E4EBCF44
:103FC0008CEF860F813A38F380E2860F883070F4E8
:103FD000677081E090E001C0880F6A95EAF78095EC
:103FE0009091FE0189238093FE01D9CF8BE5860F46
:103FF000833020F480E090E00C94FC23685A673111
:1040000020F480E090E00C94E6230895882309F4DE
:104010000DC1682F8238B1F40E94122481FD06C1BF
:1040200069E387EC92E00E94BB250E9489262FEF6E
:1040300081EE94E0215080409040E1F700C0000004
:1040400069E317C08338D9F40E94122480FDEEC0C2
:1040500063E587EC92E00E94BB250E9489262FEF42
:1040600081EE94E0215080409040E1F700C00000D4
:1040700063E587EC92E00E9490250C9489268438B1
:10408000B1F40E94122482FDD1C067E487EC92E073
:104090000E94BB250E9489262FEF81EE94E02150DB
:1040A00080409040E1F700C0000067E4E2CF8CEF71
:1040B000860F813A28F487EC92E00E94BB25DDCF81
:1040C00080E2860F883068F4677081E090E001C07C
:1040D000880F6A95EAF79091FE01892B8093FE0183
:1040E000CCCF8BE5860F833070F4653A29F0663AC1
:1040F00031F083E890E005C081E890E002C082E8FA
:1041000090E00C94FC2388E5860F873108F08EC080
:10411000683A09F445C0693A09F445C06A3A09F4B5
:1041200045C06B3A09F445C06C3A09F445C06B3B95
:1041300009F445C06C3B09F445C06D3A09F445C02B
:10414000603B09F445C06E3A09F445C06F3A09F482
:1041500045C0613B09F445C0623B09F445C0633B7F
:1041600009F445C0643B09F445C0653B09F445C00A
:10417000663B09F445C0673B09F445C0683B09F458
:1041800045C0693B09F445C06D3B09F445C06E3B31
:1041900009F445C06A3B09F445C080E090E044C0A2
:1041A00082EE90E041C089EE90E03EC08AEE90E061
:1041B0003BC085EB90E038C086EB90E035C083EBE8
:1041C00090E032C084EB90E02FC087EB90E02CC0F1
:1041D0008CEC90E029C08DEC90E026C083E891E063
:1041E00023C08AE891E020C082E991E01DC084E903
:1041F00091E01AC081E292E017C083E292E014C01D
:1042000084E292E011C085E292E00EC086E292E084
:104210000BC087E292E008C08FE690E005C080E71F
:1042200090E002C08AE292E00C94E6230895CF93D6
:10423000C82F0E940620C93349F42FEF87EE93E080
:10424000215080409040E1F700C000008C2FCF91BA
:104250000C94AA1F0895882319F05198599A02C006
:10426000519A59985098589A95E09A95F1F700000C
:10427000509A589895E09A95F1F70000882311F02C
:10428000519A599885E08A95F1F700000895EF92C8
:10429000FF920F931F93CF93DF937C01C7E7D2E088
:1042A00000E010E0F7018481073011051CF4882339
:1042B00039F002C0811104C09E014091FA0102C090
:1042C0009E0140E06091F9018091F8010E941A0E70
:1042D0000F5F1F4F24960F30110521F70E94260D06
:1042E000F701248130E02F5F3F4F21703327248373
:1042F000DF91CF911F910F91FF90EF900895EF9272
:10430000FF920F931F93CF93DF93EC012C813D819C
:104310002F5F3F4F217033273D832C8387E7E82EA3
:1043200082E0F82E10E005E5812F86954C815D81B5
:10433000480F511D842F817097014091FA016091BF
:10434000F901809F802D11240E941A0E1F5F84E0C6
:10435000E80EF11C1F3041F7DF91CF911F910F91B3
:10436000FF90EF900C94260D0F931F93CF93DF9344
:1043700080E090E0FC01E958FD4F1182108212822A
:1043800004968C339105B1F7C0E0D0E00FE010E067
:10439000CE01B8010E946429FC0180917502082EAB
:1043A000000C990BEE0FFF1FEE0FFF1FC817D90768
:1043B000A4F080911F01082E000C990B8C179D070B
:1043C00064F09F0129583D4F4091FA016091F90135
:1043D0008091F8010E941A0E05C0E958FD4F118224
:1043E000108212822196CF30D10591F60E94260DBF
:1043F00080911E0190917502980F90937502209103
:104400001F01280F20931F01121614F49E301CF078
:10441000819580931E01DF91CF911F910F91089597
:10442000AF92BF92CF92DF92EF92FF920F931F93C2
:10443000CF93DF93FC01828180FF03C0BB24BA9439
:1044400002C0BB24B39427E7E22E22E0F22E09E754
:1044500012E0C0E0D0E0F80131971082F70110823D
:10446000F801108294E0C92ED12CA12C8091740205
:104470008A0D87FD815F082E000C990BC817D9079C
:1044800091F48091FA018C9DA0018D9D500D112415
:10449000559547955595479597016091F9018091FC
:1044A000F8010E941A0EAB0CF1E0CF1AD108F1F618
:1044B000219684E0E80EF11C0C5F1F4FCF30D10530
:1044C00051F60E94260D8091740291E0B91206C047
:1044D000811102C08EE007C0815005C090E00196B6
:1044E000BE010E94642980937402DF91CF911F91D5
:1044F0000F91FF90EF90DF90CF90BF90AF90089515
:10450000EF92FF921F93CF93DF93EC0187E7E82EA2
:1045100082E0F82E10E08C8197014091FA016091C1
:10452000F901810F0E941A0E1F5E84E0E80EF11C53
:104530001F3F89F70E94260D8A819C8180FF02C05F
:104540009F5F01C091509C83DF91CF911F91FF909D
:10455000EF9008950F931F93CF93DF9300D000D077
:10456000CDB7DEB78C018091760281110AC09E0121
:104570002F5F3F4F4FEF6FEF0E941A0E8A8180939B
:104580007602F8018481813051F028F0823061F4A4
:10459000409176020AC08091760240E007C06091A7
:1045A000760240E080E003C040E080E060E00E94EE
:1045B000A80DF801248130E0C901019663E070E0A4
:1045C0000E94642984830F900F900F900F90DF91C9
:1045D000CF911F910F910895CF93DF93EC01E7EFF7
:1045E000F1E0438162818C810E94BA0E8C818F5FE1
:1045F0008C83DF91CF910895CF93DF93EC01EC8111
:10460000F0E0E95AFA4F4491E7EFF1E062818181ED
:104610000E94BA0E8C818F5F8C83DF91CF910895B9
:10462000EF92FF920F931F93CF93DF93CDB7DEB737
:1046300067970FB6F894DEBF0FBECDBF4B8B5C8B78
:104640006D8B7E8B8F8B0E891F8901151105C1F132
:104650005F3F11F44F3FA1F1E42EF12CA1E0B0E057
:10466000042E01C0AA0F0A94EAF7852F90E0662372
:1046700019F02091730206C09C0127543D4FF901A7
:1046800020812A232223A9F046E0489F9001499FD8
:10469000300D1124F701E20FF31FEE0FFF1FEB5B4C
:1046A000FE4F40815181FC01E754FD4F9081A92BC1
:1046B00006C0FC01E754FD4FA0958081A823A0838C
:1046C00086E0FE013D96DF01982F1D929A95E9F74D
:1046D0004D875E876F87198B088BDE0117960190D7
:1046E0000D928A95E1F7CE0107960E94AA1D8111CD
:1046F00037C086E0FE013796DE01119601900D92DB
:104700008A95E1F7FF81E8856A857B8561157105EA
:1047100039F1EF3F11F4FF3F19F12091ED0230E044
:10472000C90101968770992740911E0350E08417B4
:10473000950779F1F983EA837D836C8396E0929FF4
:10474000D001939FB00D1124A251BD4FFE013196AF
:1047500001900D929A95E1F78093ED020E94ED276A
:1047600016E080911E039091ED02891711F1189FB8
:10477000C001112482519D4F0E94AA1D8823C9F0B7
:1047800080911E0390E001968770992780931E0305
:10479000E8CF1092FE010E94821F1092ED0210924B
:1047A0001E03E7EEF2E086E0DF011D928A95E9F74D
:1047B000D7CF67960FB6F894DEBF0FBECDBFDF919F
:1047C000CF911F910F91FF90EF9008952091B70224
:1047D0003091B8028217930771F09093B8028093DA
:1047E000B702E0914902F0914A02309721F000842B
:1047F000F185E02D099408952091B5023091B6021B
:104800008217930771F09093B6028093B502E091FE
:104810004902F0914A02309721F00680F781E02D9D
:1048200009940895E0914902F0914A02309721F0ED
:104830000190F081E02D099480E00895CF93DF93FB
:10484000D82FC8E08D2F80780E942B21DD0FC1501A
:10485000C9F780E00E942B2185E08A95F1F70000DE
:1048600085E08A95F1F7000080E0DF91CF9108950F
:104870000F931F93CF93DF93C62FD42F022FFC01EA
:1048800082818823C9F06093F0010E945B25909398
:10489000B4028093B30280E28C0F883008F050C0DD
:1048A000C77081E001C0880FCA95EAF7DF91CF9108
:1048B0001F910F910C94A01F1091F001161330C09E
:1048C0008091B3029091B4020E943125883C9105F9
:1048D00038F5C0E2CD0F1D17B9F080E2810F8830A6
:1048E00040F4177081E001C0880F1A95EAF70E9422
:1048F000951FC83048F481E09D2F977001C0880F44
:104900009A95EAF70E94A01F802F0E941721C830B5
:10491000B8F4D77081E001C0880FDA95EAF70AC0D1
:1049200080E28C0F883060F4C77081E001C0880F8E
:10493000CA95EAF7DF91CF911F910F910C94951FC3
:10494000DF91CF911F910F9108956091F7016695C6
:1049500070E04BE050E083E191E00E94AB2A892BAC
:1049600019F481E0809371020E945B2590936B02A1
:1049700080936A0208950895809100020895CF936C
:10498000DF9320912D02211103C02091230202C048
:10499000223011F02430E1F520910601222339F074
:1049A0002091460227FF03C060E222E002C068E0D7
:1049B00021E02093E9002FEF3091E800215035FDF0
:1049C00006C035ED3A95F1F700002111F5CF2091A1
:1049D000E80025FF1DC0EC0180910601811105C092
:1049E00040E050E068E070E003C070E040E050E07C
:1049F000CE010E94D1148091E8008E778093E80068
:104A000080E2FE01A1E0B2E001900D928A95E1F70B
:104A1000DF91CF91089578941F920F920FB60F9265
:104A200011248F939F93AF93BF93809162039091D2
:104A30006303A0916403B09165030196A11DB11DAC
:104A40008093620390936303A0936403B093650320
:104A5000BF91AF919F918F910F900FBE0F901F90BC
:104A60001895CF92DF92EF92FF920F931F932FB77B
:104A7000F8944091620350916303609164037091D4
:104A800065032FBF6A017B01EE24FF248C0120E027
:104A900030E0C016D106E206F30610F44150510989
:104AA0009A01281B390BC9011F910F91FF90EF90BC
:104AB000DF90CF9008952FB7F89480916203909182
:104AC0006303A0916403B09165032FBF08951F9203
:104AD0000F920FB60F9211248F939F93AF93BF93B2
:104AE00080914B02811113C0809162039091630306
:104AF000A0916403B09165034196A11DB11D8093FF
:104B0000620390936303A0936403B0936503BF9122
:104B1000AF919F918F910F900FBE0F901F9018959E
:104B200020910601222321F02091460227FD04C096
:104B3000FC013296089619C0262F269526952695B3
:104B40002E31C0F4FC01E20FF11D677081E090E0AE
:104B500001C0880F6A95EAF7809592818923828344
:104B600008953196E817F90729F020812613F9CF27
:104B70001082F7CF089520910601222321F0209181
:104B8000460227FD05C0FC0132962FEF30E019C028
:104B9000262F2695269526952E3120F5FC01E20F2D
:104BA000F11D677081E090E001C0880F6A95EAF717
:104BB0009281892B828308952F3F39F03F5F3630F1
:104BC00041F041914613F8CF0DC04111F7CF232F8B
:104BD000F5CF2F3F39F0FC01E20FF11D27FDFA95CB
:104BE000628308950895CF9384E090E00E9408299D
:104BF000C82F81E290E00E9408292C2F30E0A90103
:104C0000582BCA01CF91089580E090E00E941629A8
:104C100021E08F3E9E4F09F020E0822F08956FEE35
:104C20007EEF80E090E00E943A2960E082E090E030
:104C30000E941C2960E083E090E00E941C291092F1
:104C40005E0310925F03109260031092610360E0B4
:104C500084E090E00E941C2960E081E290E00E94E4
:104C60001C2960E085E090E00E941C2960E086E05D
:104C700090E00E941C296FEF87E090E00E941C29C1
:104C800040E050E0BA0188E090E00E942E2960E008
:104C90008DE090E00E941C2940E050E0BA0188E1DC
:104CA00090E00E942E2960E087E190E00E941C299C
:104CB00040E050E0BA018CE190E00E942E2960E0D3
:104CC00080E290E00E941C2910923402109235027A
:104CD000109236021092370284E080618093340291
:104CE0004091340250913502609136027091370242
:104CF0008FE090E00E942E2940E050E0BA0183E16D
:104D000090E00C942E2980915D03811110925D0337
:104D1000089590915C038091FE01892B20915B03A3
:104D2000982F922B9093C70280915D038823D9F02E
:104D3000892B8093C70280910601882331F08091EE
:104D4000460287FF02C08EE101C086E0E9ECF2E096
:104D500090E0815028F021912223D9F39F5FF9CF71
:104D600091110E948326E0914902F0914A02309706
:104D7000A9F080910601882359F08091460287FFAF
:104D800007C08091C7028093C80285E08093C70264
:104D90000280F381E02D87EC92E009940895BF92A0
:104DA000CF92DF92EF92FF920F931F93CF93DF93F7
:104DB0008C01C0905E03D0905F03E0906003F090A0
:104DC00061038091560390915703A0915803B091CD
:104DD0005903C82AD92AEA2AFB2ACFE1D0E0D70111
:104DE000C6010C2E04C0B695A795979587950A9491
:104DF000D2F780FF07C0BC2EB8018C2F0E94C80FCD
:104E0000019719F4219758F7B12C8B2DDF91CF9191
:104E10001F910F91FF90EF90DF90CF90BF9008957A
:104E2000CF93DF93EC010E94CF26BE010E94C80FF2
:104E3000DF91CF910895292F220F920F990F890F9B
:104E4000682F669566956695982F977085E0689FA0
:104E5000B001112440E050E080E0FA01E60FF71FB6
:104E6000E15EFC4F208130E0092E02C03695279587
:104E70000A94E2F721703327042E01C0220F0A940E
:104E8000EAF7822B4F5F5F4F4530510531F70895A8
:104E9000292F220F920F990F890FA82FA695A6955B
:104EA000A695877051E001C0550F8A95EAF785E015
:104EB000A89FD001112420E030E070E0F901EA0F52
:104EC000FB1FE15EFC4F4081CB01022E02C0969594
:104ED00087950A94E2F78170992781958427852325
:104EE000842780832F5F3F4F2530310539F70895A0
:104EF0000E944112609356037093570380935803A6
:104F0000909359030C94741F0F931F9341E050E04A
:104F100060E070E004C0440F551F661F771F8A953C
:104F2000D2F7409550956095709580915603909179
:104F30005703A0915803B09159038A019B0108239C
:104F400019232A233B23C901B8011F910F910C9407
:104F5000782720915A038095822380935A03982FB3
:104F6000977079F430E0482F082E000C550B241769
:104F7000350739F08595859585950E94842710928F
:104F80005A0308950F931F9341E050E060E070E0F2
:104F900004C0440F551F661F771F8A95D2F7809172
:104FA000560390915703A0915803B09159038A0179
:104FB0009B01082B192B2A2B3B2BC901B8011F91F0
:104FC0000F910C94782760935E0370935F03809336
:104FD0006003909361030C94741F80911E03909161
:104FE000ED02891719F08F5F8770FBCF08958091CC
:104FF000EC0282958F7009F054C08091E9028823F9
:1050000009F44FC080911E03A091ED026091E70268
:105010007091E8024091EA025091EB02B6E08A17E3
:1050200009F43FC090E041155105C1F17F3F11F4F3
:105030006F3FA1F1B89FF001B99FF00D1124E2512B
:10504000FD4F218172132AC02081621327C0228163
:10505000211124C0238134812417350710F42150F5
:105060003109241B350B283C3105C0F42091EC029A
:105070002F7020612093EC0226E0289FF001299FE9
:10508000F00D1124ED50FD4F80818F708061808381
:1050900087EE92E00E944B030C94ED2701968770F7
:1050A000BECF08951092B9008CE08093B8000895A7
:1050B000EF92FF920F931F93CF93DF93182FEB0183
:1050C0001092BC0084EA8093BC000E945B257C01A6
:1050D0009091BC0097FD0EC0CF3F8FEFD807C1F372
:1050E0000E945B258E199F098C179D0788F38EEF10
:1050F0009FEF2EC09091B900987F983041F0909129
:10510000B900987F903119F08FEF9FEF21C0109375
:10511000BB0084E88093BC000E945B258C019091C9
:10512000BC0097FD0CC0CF3F8FEFD807C1F30E94A2
:105130005B25801B910B8C179D0788F3D8CF80913E
:10514000B900887F883111F08034F1F680E090E07A
:10515000DF91CF911F910F91FF90EF9008950F93E2
:105160001F93CF93DF93EB018093BB0084E8809380
:10517000BC000E945B258C019091BC0097FD0EC085
:10518000CF3F8FEFD807C1F30E945B25801B910BA7
:105190008C179D0788F38EEF9FEF0CC02091B9000C
:1051A000287F81E090E0283211F480E090E0919532
:1051B00081959109DF91CF911F910F9108950F93E0
:1051C0001F93CF93DF93EC0184E88093BC000E948F
:1051D0005B258C019091BC0097FD0EC0CF3F8FEFF7
:1051E000D807C1F30E945B25801B910B8C179D078C
:1051F00088F38EEF9FEF03C08091BB0090E0DF91BA
:10520000CF911F910F91089584E98093BC00089578
:10521000F999FECF92BD81BDF89A992780B508957E
:10522000A6E1B0E044E050E00C944229A8E1B0E0EF
:1052300042E050E00C944229262FF999FECF92BD0E
:1052400081BDF89A019700B4021639F01FBA20BD4B
:105250000FB6F894FA9AF99A0FBE08950396272F7D
:105260000E941D290E941C29252F0E941D29242FE0
:105270000C941D290196272F0E941D290C941C298E
:10528000DC01CB01FC01F999FECF06C0F2BDE1BD06
:10529000F89A319600B40D9241505040B8F70895F5
:1052A000AA1BBB1B51E107C0AA1FBB1FA617B7074C
:1052B00010F0A61BB70B881F991F5A95A9F7809568
:1052C0009095BC01CD01089597FB072E16F400942C
:1052D00007D077FD09D00E94502907FC05D03EF485
:1052E000909581959F4F0895709561957F4F089592
:1052F000EE0FFF1F0590F491E02D0994CF93DF93FB
:105300008230910510F482E090E0E0916803F09122
:10531000690320E030E0C0E0D0E0309711F1408137
:10532000518148175907C0F04817590761F4828125
:105330009381209719F09B838A832BC090936903F4
:105340008093680326C02115310519F042175307D1
:1053500018F49A01BE01DF01EF010280F381E02D14
:10536000DCCF2115310509F1281B390B243031051B
:1053700090F412968D919C9113976115710521F00F
:10538000FB019383828304C0909369038093680335
:10539000FD01329644C0FD01E20FF31F819391930A
:1053A000225031092D933C933AC0209166033091ED
:1053B0006703232B41F420910201309103013093C4
:1053C00067032093660320910001309101012115AC
:1053D000310541F42DB73EB74091040150910501CC
:1053E000241B350BE0916603F0916703E217F30786
:1053F000A0F42E1B3F0B2817390778F0AC014E5F45
:105400005F4F2417350748F04E0F5F1F5093670317
:10541000409366038193919302C0E0E0F0E0CF01F6
:10542000DF91CF9108950F931F93CF93DF93009750
:1054300009F48CC0FC013297138212820091680338
:10544000109169030115110581F420813181820FCA
:10545000931F20916603309167032817390779F568
:10546000F0936703E093660371C0D80140E050E019
:10547000AE17BF0750F412962D913C911397AD01D2
:105480002115310509F1D901F3CF9D01DA013383EB
:10549000228360817181860F971F8217930769F4B9
:1054A000EC0128813981260F371F2E5F3F4F318352
:1054B00020838A819B8193838283452B29F4F093F7
:1054C0006903E093680342C01396FC93EE9312972E
:1054D000ED01499159919E01240F351FE217F30701
:1054E00071F480819181840F951F029611969C938F
:1054F0008E938281938113969C938E931297E0E012
:10550000F0E0D80112968D919C911397009719F0B5
:10551000F8018C01F6CF8D919C9198012E5F3F4F41
:10552000820F931F20916603309167032817390774
:1055300069F4309729F4109269031092680302C04D
:10554000138212821093670300936603DF91CF9159
:105550001F910F910895FC014150504030F001908F
:105560000616D1F73197CF01089588279927089516
:04557000F894FFCFDD
:1055740000006A032000012000BC24BF24BB24CB0C
:10558400198D1901191A1B1C1D1E1F20212201022D
:105594000001020202020606060909090909090FA7
:1055A4000F0F0F0F0F1515151819191919191919A6
:1055B4001919192324000D010D020D030D040D0505
:1055C4000D000C010C020C030C040C050C000B0167
:1055D4000B020B030B040B050B000A010A020A035E
:1055E4000A040A050A000901090209030904090554
:1055F4000900080108020803080408050800070157
:10560400070207030704070507000601060206034D
:105614000604060506000501050205030504050543
:105624000500040104020403040404050400030146
:10563400030203030304030503000201020202033D
:105644000204020502000101010201030104010533
:0E565400010000010002000300040005000038
:00000001FF
